{
  "_format": "hh-sol-artifact-1",
  "contractName": "LensHub",
  "sourceName": "contracts/core/LensHub.sol",
  "abi": [
    {
      "inputs": [
        {
          "internalType": "address",
          "name": "followNFTImpl",
          "type": "address"
        },
        {
          "internalType": "address",
          "name": "collectNFTImpl",
          "type": "address"
        }
      ],
      "stateMutability": "nonpayable",
      "type": "constructor"
    },
    {
      "inputs": [],
      "name": "CallerNotCollectNFT",
      "type": "error"
    },
    {
      "inputs": [],
      "name": "CallerNotFollowNFT",
      "type": "error"
    },
    {
      "inputs": [],
      "name": "CannotInitImplementation",
      "type": "error"
    },
    {
      "inputs": [],
      "name": "Initialized",
      "type": "error"
    },
    {
      "inputs": [],
      "name": "NotGovernance",
      "type": "error"
    },
    {
      "inputs": [],
      "name": "NotGovernanceOrEmergencyAdmin",
      "type": "error"
    },
    {
      "inputs": [],
      "name": "NotOwnerOrApproved",
      "type": "error"
    },
    {
      "inputs": [],
      "name": "NotProfileOwner",
      "type": "error"
    },
    {
      "inputs": [],
      "name": "NotProfileOwnerOrDispatcher",
      "type": "error"
    },
    {
      "inputs": [],
      "name": "Paused",
      "type": "error"
    },
    {
      "inputs": [],
      "name": "ProfileCreatorNotWhitelisted",
      "type": "error"
    },
    {
      "inputs": [],
      "name": "PublicationDoesNotExist",
      "type": "error"
    },
    {
      "inputs": [],
      "name": "PublishingPaused",
      "type": "error"
    },
    {
      "inputs": [],
      "name": "SignatureExpired",
      "type": "error"
    },
    {
      "inputs": [],
      "name": "SignatureInvalid",
      "type": "error"
    },
    {
      "inputs": [],
      "name": "ZeroSpender",
      "type": "error"
    },
    {
      "anonymous": false,
      "inputs": [
        {
          "indexed": true,
          "internalType": "address",
          "name": "owner",
          "type": "address"
        },
        {
          "indexed": true,
          "internalType": "address",
          "name": "approved",
          "type": "address"
        },
        {
          "indexed": true,
          "internalType": "uint256",
          "name": "tokenId",
          "type": "uint256"
        }
      ],
      "name": "Approval",
      "type": "event"
    },
    {
      "anonymous": false,
      "inputs": [
        {
          "indexed": true,
          "internalType": "address",
          "name": "owner",
          "type": "address"
        },
        {
          "indexed": true,
          "internalType": "address",
          "name": "operator",
          "type": "address"
        },
        {
          "indexed": false,
          "internalType": "bool",
          "name": "approved",
          "type": "bool"
        }
      ],
      "name": "ApprovalForAll",
      "type": "event"
    },
    {
      "anonymous": false,
      "inputs": [
        {
          "indexed": true,
          "internalType": "address",
          "name": "from",
          "type": "address"
        },
        {
          "indexed": true,
          "internalType": "address",
          "name": "to",
          "type": "address"
        },
        {
          "indexed": true,
          "internalType": "uint256",
          "name": "tokenId",
          "type": "uint256"
        }
      ],
      "name": "Transfer",
      "type": "event"
    },
    {
      "inputs": [
        {
          "internalType": "address",
          "name": "to",
          "type": "address"
        },
        {
          "internalType": "uint256",
          "name": "tokenId",
          "type": "uint256"
        }
      ],
      "name": "approve",
      "outputs": [],
      "stateMutability": "nonpayable",
      "type": "function"
    },
    {
      "inputs": [
        {
          "internalType": "address",
          "name": "owner",
          "type": "address"
        }
      ],
      "name": "balanceOf",
      "outputs": [
        {
          "internalType": "uint256",
          "name": "",
          "type": "uint256"
        }
      ],
      "stateMutability": "view",
      "type": "function"
    },
    {
      "inputs": [
        {
          "internalType": "uint256",
          "name": "tokenId",
          "type": "uint256"
        }
      ],
      "name": "burn",
      "outputs": [],
      "stateMutability": "nonpayable",
      "type": "function"
    },
    {
      "inputs": [
        {
          "internalType": "uint256",
          "name": "tokenId",
          "type": "uint256"
        },
        {
          "components": [
            {
              "internalType": "uint8",
              "name": "v",
              "type": "uint8"
            },
            {
              "internalType": "bytes32",
              "name": "r",
              "type": "bytes32"
            },
            {
              "internalType": "bytes32",
              "name": "s",
              "type": "bytes32"
            },
            {
              "internalType": "uint256",
              "name": "deadline",
              "type": "uint256"
            }
          ],
          "internalType": "struct DataTypes.EIP712Signature",
          "name": "sig",
          "type": "tuple"
        }
      ],
      "name": "burnWithSig",
      "outputs": [],
      "stateMutability": "nonpayable",
      "type": "function"
    },
    {
      "inputs": [
        {
          "internalType": "uint256",
          "name": "profileId",
          "type": "uint256"
        },
        {
          "internalType": "uint256",
          "name": "pubId",
          "type": "uint256"
        },
        {
          "internalType": "bytes",
          "name": "data",
          "type": "bytes"
        }
      ],
      "name": "collect",
      "outputs": [],
      "stateMutability": "nonpayable",
      "type": "function"
    },
    {
      "inputs": [
        {
          "components": [
            {
              "internalType": "address",
              "name": "collector",
              "type": "address"
            },
            {
              "internalType": "uint256",
              "name": "profileId",
              "type": "uint256"
            },
            {
              "internalType": "uint256",
              "name": "pubId",
              "type": "uint256"
            },
            {
              "internalType": "bytes",
              "name": "data",
              "type": "bytes"
            },
            {
              "components": [
                {
                  "internalType": "uint8",
                  "name": "v",
                  "type": "uint8"
                },
                {
                  "internalType": "bytes32",
                  "name": "r",
                  "type": "bytes32"
                },
                {
                  "internalType": "bytes32",
                  "name": "s",
                  "type": "bytes32"
                },
                {
                  "internalType": "uint256",
                  "name": "deadline",
                  "type": "uint256"
                }
              ],
              "internalType": "struct DataTypes.EIP712Signature",
              "name": "sig",
              "type": "tuple"
            }
          ],
          "internalType": "struct DataTypes.CollectWithSigData",
          "name": "vars",
          "type": "tuple"
        }
      ],
      "name": "collectWithSig",
      "outputs": [],
      "stateMutability": "nonpayable",
      "type": "function"
    },
    {
      "inputs": [
        {
          "components": [
            {
              "internalType": "uint256",
              "name": "profileId",
              "type": "uint256"
            },
            {
              "internalType": "string",
              "name": "contentURI",
              "type": "string"
            },
            {
              "internalType": "uint256",
              "name": "profileIdPointed",
              "type": "uint256"
            },
            {
              "internalType": "uint256",
              "name": "pubIdPointed",
              "type": "uint256"
            },
            {
              "internalType": "address",
              "name": "collectModule",
              "type": "address"
            },
            {
              "internalType": "bytes",
              "name": "collectModuleData",
              "type": "bytes"
            },
            {
              "internalType": "address",
              "name": "referenceModule",
              "type": "address"
            },
            {
              "internalType": "bytes",
              "name": "referenceModuleData",
              "type": "bytes"
            }
          ],
          "internalType": "struct DataTypes.CommentData",
          "name": "vars",
          "type": "tuple"
        }
      ],
      "name": "comment",
      "outputs": [],
      "stateMutability": "nonpayable",
      "type": "function"
    },
    {
      "inputs": [
        {
          "components": [
            {
              "internalType": "uint256",
              "name": "profileId",
              "type": "uint256"
            },
            {
              "internalType": "string",
              "name": "contentURI",
              "type": "string"
            },
            {
              "internalType": "uint256",
              "name": "profileIdPointed",
              "type": "uint256"
            },
            {
              "internalType": "uint256",
              "name": "pubIdPointed",
              "type": "uint256"
            },
            {
              "internalType": "address",
              "name": "collectModule",
              "type": "address"
            },
            {
              "internalType": "bytes",
              "name": "collectModuleData",
              "type": "bytes"
            },
            {
              "internalType": "address",
              "name": "referenceModule",
              "type": "address"
            },
            {
              "internalType": "bytes",
              "name": "referenceModuleData",
              "type": "bytes"
            },
            {
              "components": [
                {
                  "internalType": "uint8",
                  "name": "v",
                  "type": "uint8"
                },
                {
                  "internalType": "bytes32",
                  "name": "r",
                  "type": "bytes32"
                },
                {
                  "internalType": "bytes32",
                  "name": "s",
                  "type": "bytes32"
                },
                {
                  "internalType": "uint256",
                  "name": "deadline",
                  "type": "uint256"
                }
              ],
              "internalType": "struct DataTypes.EIP712Signature",
              "name": "sig",
              "type": "tuple"
            }
          ],
          "internalType": "struct DataTypes.CommentWithSigData",
          "name": "vars",
          "type": "tuple"
        }
      ],
      "name": "commentWithSig",
      "outputs": [],
      "stateMutability": "nonpayable",
      "type": "function"
    },
    {
      "inputs": [
        {
          "components": [
            {
              "internalType": "address",
              "name": "to",
              "type": "address"
            },
            {
              "internalType": "string",
              "name": "handle",
              "type": "string"
            },
            {
              "internalType": "string",
              "name": "imageURI",
              "type": "string"
            },
            {
              "internalType": "address",
              "name": "followModule",
              "type": "address"
            },
            {
              "internalType": "bytes",
              "name": "followModuleData",
              "type": "bytes"
            },
            {
              "internalType": "string",
              "name": "followNFTURI",
              "type": "string"
            }
          ],
          "internalType": "struct DataTypes.CreateProfileData",
          "name": "vars",
          "type": "tuple"
        }
      ],
      "name": "createProfile",
      "outputs": [],
      "stateMutability": "nonpayable",
      "type": "function"
    },
    {
      "inputs": [
        {
          "internalType": "uint256",
          "name": "profileId",
          "type": "uint256"
        },
        {
          "internalType": "uint256",
          "name": "pubId",
          "type": "uint256"
        },
        {
          "internalType": "uint256",
          "name": "collectNFTId",
          "type": "uint256"
        },
        {
          "internalType": "address",
          "name": "from",
          "type": "address"
        },
        {
          "internalType": "address",
          "name": "to",
          "type": "address"
        }
      ],
      "name": "emitCollectNFTTransferEvent",
      "outputs": [],
      "stateMutability": "nonpayable",
      "type": "function"
    },
    {
      "inputs": [
        {
          "internalType": "uint256",
          "name": "profileId",
          "type": "uint256"
        },
        {
          "internalType": "uint256",
          "name": "followNFTId",
          "type": "uint256"
        },
        {
          "internalType": "address",
          "name": "from",
          "type": "address"
        },
        {
          "internalType": "address",
          "name": "to",
          "type": "address"
        }
      ],
      "name": "emitFollowNFTTransferEvent",
      "outputs": [],
      "stateMutability": "nonpayable",
      "type": "function"
    },
    {
      "inputs": [
        {
          "internalType": "uint256[]",
          "name": "profileIds",
          "type": "uint256[]"
        },
        {
          "internalType": "bytes[]",
          "name": "datas",
          "type": "bytes[]"
        }
      ],
      "name": "follow",
      "outputs": [],
      "stateMutability": "nonpayable",
      "type": "function"
    },
    {
      "inputs": [
        {
          "components": [
            {
              "internalType": "address",
              "name": "follower",
              "type": "address"
            },
            {
              "internalType": "uint256[]",
              "name": "profileIds",
              "type": "uint256[]"
            },
            {
              "internalType": "bytes[]",
              "name": "datas",
              "type": "bytes[]"
            },
            {
              "components": [
                {
                  "internalType": "uint8",
                  "name": "v",
                  "type": "uint8"
                },
                {
                  "internalType": "bytes32",
                  "name": "r",
                  "type": "bytes32"
                },
                {
                  "internalType": "bytes32",
                  "name": "s",
                  "type": "bytes32"
                },
                {
                  "internalType": "uint256",
                  "name": "deadline",
                  "type": "uint256"
                }
              ],
              "internalType": "struct DataTypes.EIP712Signature",
              "name": "sig",
              "type": "tuple"
            }
          ],
          "internalType": "struct DataTypes.FollowWithSigData",
          "name": "vars",
          "type": "tuple"
        }
      ],
      "name": "followWithSig",
      "outputs": [],
      "stateMutability": "nonpayable",
      "type": "function"
    },
    {
      "inputs": [
        {
          "internalType": "uint256",
          "name": "tokenId",
          "type": "uint256"
        }
      ],
      "name": "getApproved",
      "outputs": [
        {
          "internalType": "address",
          "name": "",
          "type": "address"
        }
      ],
      "stateMutability": "view",
      "type": "function"
    },
    {
      "inputs": [
        {
          "internalType": "uint256",
          "name": "profileId",
          "type": "uint256"
        },
        {
          "internalType": "uint256",
          "name": "pubId",
          "type": "uint256"
        }
      ],
      "name": "getCollectModule",
      "outputs": [
        {
          "internalType": "address",
          "name": "",
          "type": "address"
        }
      ],
      "stateMutability": "view",
      "type": "function"
    },
    {
      "inputs": [
        {
          "internalType": "uint256",
          "name": "profileId",
          "type": "uint256"
        },
        {
          "internalType": "uint256",
          "name": "pubId",
          "type": "uint256"
        }
      ],
      "name": "getCollectNFT",
      "outputs": [
        {
          "internalType": "address",
          "name": "",
          "type": "address"
        }
      ],
      "stateMutability": "view",
      "type": "function"
    },
    {
      "inputs": [
        {
          "internalType": "uint256",
          "name": "profileId",
          "type": "uint256"
        },
        {
          "internalType": "uint256",
          "name": "pubId",
          "type": "uint256"
        }
      ],
      "name": "getContentURI",
      "outputs": [
        {
          "internalType": "string",
          "name": "",
          "type": "string"
        }
      ],
      "stateMutability": "view",
      "type": "function"
    },
    {
      "inputs": [
        {
          "internalType": "uint256",
          "name": "profileId",
          "type": "uint256"
        }
      ],
      "name": "getDispatcher",
      "outputs": [
        {
          "internalType": "address",
          "name": "",
          "type": "address"
        }
      ],
      "stateMutability": "view",
      "type": "function"
    },
    {
      "inputs": [],
      "name": "getDomainSeparator",
      "outputs": [
        {
          "internalType": "bytes32",
          "name": "",
          "type": "bytes32"
        }
      ],
      "stateMutability": "view",
      "type": "function"
    },
    {
      "inputs": [
        {
          "internalType": "uint256",
          "name": "profileId",
          "type": "uint256"
        }
      ],
      "name": "getFollowModule",
      "outputs": [
        {
          "internalType": "address",
          "name": "",
          "type": "address"
        }
      ],
      "stateMutability": "view",
      "type": "function"
    },
    {
      "inputs": [
        {
          "internalType": "uint256",
          "name": "profileId",
          "type": "uint256"
        }
      ],
      "name": "getFollowNFT",
      "outputs": [
        {
          "internalType": "address",
          "name": "",
          "type": "address"
        }
      ],
      "stateMutability": "view",
      "type": "function"
    },
    {
      "inputs": [
        {
          "internalType": "uint256",
          "name": "profileId",
          "type": "uint256"
        }
      ],
      "name": "getFollowNFTURI",
      "outputs": [
        {
          "internalType": "string",
          "name": "",
          "type": "string"
        }
      ],
      "stateMutability": "view",
      "type": "function"
    },
    {
      "inputs": [],
      "name": "getGovernance",
      "outputs": [
        {
          "internalType": "address",
          "name": "",
          "type": "address"
        }
      ],
      "stateMutability": "view",
      "type": "function"
    },
    {
      "inputs": [
        {
          "internalType": "uint256",
          "name": "profileId",
          "type": "uint256"
        }
      ],
      "name": "getHandle",
      "outputs": [
        {
          "internalType": "string",
          "name": "",
          "type": "string"
        }
      ],
      "stateMutability": "view",
      "type": "function"
    },
    {
      "inputs": [
        {
          "internalType": "uint256",
          "name": "profileId",
          "type": "uint256"
        }
      ],
      "name": "getProfile",
      "outputs": [
        {
          "components": [
            {
              "internalType": "uint256",
              "name": "pubCount",
              "type": "uint256"
            },
            {
              "internalType": "address",
              "name": "followModule",
              "type": "address"
            },
            {
              "internalType": "address",
              "name": "followNFT",
              "type": "address"
            },
            {
              "internalType": "string",
              "name": "handle",
              "type": "string"
            },
            {
              "internalType": "string",
              "name": "imageURI",
              "type": "string"
            },
            {
              "internalType": "string",
              "name": "followNFTURI",
              "type": "string"
            }
          ],
          "internalType": "struct DataTypes.ProfileStruct",
          "name": "",
          "type": "tuple"
        }
      ],
      "stateMutability": "view",
      "type": "function"
    },
    {
      "inputs": [
        {
          "internalType": "string",
          "name": "handle",
          "type": "string"
        }
      ],
      "name": "getProfileIdByHandle",
      "outputs": [
        {
          "internalType": "uint256",
          "name": "",
          "type": "uint256"
        }
      ],
      "stateMutability": "view",
      "type": "function"
    },
    {
      "inputs": [
        {
          "internalType": "uint256",
          "name": "profileId",
          "type": "uint256"
        },
        {
          "internalType": "uint256",
          "name": "pubId",
          "type": "uint256"
        }
      ],
      "name": "getPub",
      "outputs": [
        {
          "components": [
            {
              "internalType": "uint256",
              "name": "profileIdPointed",
              "type": "uint256"
            },
            {
              "internalType": "uint256",
              "name": "pubIdPointed",
              "type": "uint256"
            },
            {
              "internalType": "string",
              "name": "contentURI",
              "type": "string"
            },
            {
              "internalType": "address",
              "name": "referenceModule",
              "type": "address"
            },
            {
              "internalType": "address",
              "name": "collectModule",
              "type": "address"
            },
            {
              "internalType": "address",
              "name": "collectNFT",
              "type": "address"
            }
          ],
          "internalType": "struct DataTypes.PublicationStruct",
          "name": "",
          "type": "tuple"
        }
      ],
      "stateMutability": "view",
      "type": "function"
    },
    {
      "inputs": [
        {
          "internalType": "uint256",
          "name": "profileId",
          "type": "uint256"
        }
      ],
      "name": "getPubCount",
      "outputs": [
        {
          "internalType": "uint256",
          "name": "",
          "type": "uint256"
        }
      ],
      "stateMutability": "view",
      "type": "function"
    },
    {
      "inputs": [
        {
          "internalType": "uint256",
          "name": "profileId",
          "type": "uint256"
        },
        {
          "internalType": "uint256",
          "name": "pubId",
          "type": "uint256"
        }
      ],
      "name": "getPubPointer",
      "outputs": [
        {
          "internalType": "uint256",
          "name": "",
          "type": "uint256"
        },
        {
          "internalType": "uint256",
          "name": "",
          "type": "uint256"
        }
      ],
      "stateMutability": "view",
      "type": "function"
    },
    {
      "inputs": [
        {
          "internalType": "uint256",
          "name": "profileId",
          "type": "uint256"
        },
        {
          "internalType": "uint256",
          "name": "pubId",
          "type": "uint256"
        }
      ],
      "name": "getPubType",
      "outputs": [
        {
          "internalType": "enum DataTypes.PubType",
          "name": "",
          "type": "uint8"
        }
      ],
      "stateMutability": "view",
      "type": "function"
    },
    {
      "inputs": [
        {
          "internalType": "uint256",
          "name": "profileId",
          "type": "uint256"
        },
        {
          "internalType": "uint256",
          "name": "pubId",
          "type": "uint256"
        }
      ],
      "name": "getReferenceModule",
      "outputs": [
        {
          "internalType": "address",
          "name": "",
          "type": "address"
        }
      ],
      "stateMutability": "view",
      "type": "function"
    },
    {
      "inputs": [],
      "name": "getState",
      "outputs": [
        {
          "internalType": "enum DataTypes.ProtocolState",
          "name": "",
          "type": "uint8"
        }
      ],
      "stateMutability": "view",
      "type": "function"
    },
    {
      "inputs": [
        {
          "internalType": "string",
          "name": "name",
          "type": "string"
        },
        {
          "internalType": "string",
          "name": "symbol",
          "type": "string"
        },
        {
          "internalType": "address",
          "name": "newGovernance",
          "type": "address"
        }
      ],
      "name": "initialize",
      "outputs": [],
      "stateMutability": "nonpayable",
      "type": "function"
    },
    {
      "inputs": [
        {
          "internalType": "address",
          "name": "owner",
          "type": "address"
        },
        {
          "internalType": "address",
          "name": "operator",
          "type": "address"
        }
      ],
      "name": "isApprovedForAll",
      "outputs": [
        {
          "internalType": "bool",
          "name": "",
          "type": "bool"
        }
      ],
      "stateMutability": "view",
      "type": "function"
    },
    {
      "inputs": [
        {
          "internalType": "address",
          "name": "collectModule",
          "type": "address"
        }
      ],
      "name": "isCollectModuleWhitelisted",
      "outputs": [
        {
          "internalType": "bool",
          "name": "",
          "type": "bool"
        }
      ],
      "stateMutability": "view",
      "type": "function"
    },
    {
      "inputs": [
        {
          "internalType": "address",
          "name": "followModule",
          "type": "address"
        }
      ],
      "name": "isFollowModuleWhitelisted",
      "outputs": [
        {
          "internalType": "bool",
          "name": "",
          "type": "bool"
        }
      ],
      "stateMutability": "view",
      "type": "function"
    },
    {
      "inputs": [
        {
          "internalType": "address",
          "name": "profileCreator",
          "type": "address"
        }
      ],
      "name": "isProfileCreatorWhitelisted",
      "outputs": [
        {
          "internalType": "bool",
          "name": "",
          "type": "bool"
        }
      ],
      "stateMutability": "view",
      "type": "function"
    },
    {
      "inputs": [
        {
          "internalType": "address",
          "name": "referenceModule",
          "type": "address"
        }
      ],
      "name": "isReferenceModuleWhitelisted",
      "outputs": [
        {
          "internalType": "bool",
          "name": "",
          "type": "bool"
        }
      ],
      "stateMutability": "view",
      "type": "function"
    },
    {
      "inputs": [
        {
          "internalType": "uint256",
          "name": "tokenId",
          "type": "uint256"
        }
      ],
      "name": "mintTimestampOf",
      "outputs": [
        {
          "internalType": "uint256",
          "name": "",
          "type": "uint256"
        }
      ],
      "stateMutability": "view",
      "type": "function"
    },
    {
      "inputs": [
        {
          "components": [
            {
              "internalType": "uint256",
              "name": "profileId",
              "type": "uint256"
            },
            {
              "internalType": "uint256",
              "name": "profileIdPointed",
              "type": "uint256"
            },
            {
              "internalType": "uint256",
              "name": "pubIdPointed",
              "type": "uint256"
            },
            {
              "internalType": "address",
              "name": "referenceModule",
              "type": "address"
            },
            {
              "internalType": "bytes",
              "name": "referenceModuleData",
              "type": "bytes"
            }
          ],
          "internalType": "struct DataTypes.MirrorData",
          "name": "vars",
          "type": "tuple"
        }
      ],
      "name": "mirror",
      "outputs": [],
      "stateMutability": "nonpayable",
      "type": "function"
    },
    {
      "inputs": [
        {
          "components": [
            {
              "internalType": "uint256",
              "name": "profileId",
              "type": "uint256"
            },
            {
              "internalType": "uint256",
              "name": "profileIdPointed",
              "type": "uint256"
            },
            {
              "internalType": "uint256",
              "name": "pubIdPointed",
              "type": "uint256"
            },
            {
              "internalType": "address",
              "name": "referenceModule",
              "type": "address"
            },
            {
              "internalType": "bytes",
              "name": "referenceModuleData",
              "type": "bytes"
            },
            {
              "components": [
                {
                  "internalType": "uint8",
                  "name": "v",
                  "type": "uint8"
                },
                {
                  "internalType": "bytes32",
                  "name": "r",
                  "type": "bytes32"
                },
                {
                  "internalType": "bytes32",
                  "name": "s",
                  "type": "bytes32"
                },
                {
                  "internalType": "uint256",
                  "name": "deadline",
                  "type": "uint256"
                }
              ],
              "internalType": "struct DataTypes.EIP712Signature",
              "name": "sig",
              "type": "tuple"
            }
          ],
          "internalType": "struct DataTypes.MirrorWithSigData",
          "name": "vars",
          "type": "tuple"
        }
      ],
      "name": "mirrorWithSig",
      "outputs": [],
      "stateMutability": "nonpayable",
      "type": "function"
    },
    {
      "inputs": [],
      "name": "name",
      "outputs": [
        {
          "internalType": "string",
          "name": "",
          "type": "string"
        }
      ],
      "stateMutability": "view",
      "type": "function"
    },
    {
      "inputs": [
        {
          "internalType": "uint256",
          "name": "tokenId",
          "type": "uint256"
        }
      ],
      "name": "ownerOf",
      "outputs": [
        {
          "internalType": "address",
          "name": "",
          "type": "address"
        }
      ],
      "stateMutability": "view",
      "type": "function"
    },
    {
      "inputs": [
        {
          "internalType": "address",
          "name": "spender",
          "type": "address"
        },
        {
          "internalType": "uint256",
          "name": "tokenId",
          "type": "uint256"
        },
        {
          "components": [
            {
              "internalType": "uint8",
              "name": "v",
              "type": "uint8"
            },
            {
              "internalType": "bytes32",
              "name": "r",
              "type": "bytes32"
            },
            {
              "internalType": "bytes32",
              "name": "s",
              "type": "bytes32"
            },
            {
              "internalType": "uint256",
              "name": "deadline",
              "type": "uint256"
            }
          ],
          "internalType": "struct DataTypes.EIP712Signature",
          "name": "sig",
          "type": "tuple"
        }
      ],
      "name": "permit",
      "outputs": [],
      "stateMutability": "nonpayable",
      "type": "function"
    },
    {
      "inputs": [
        {
          "internalType": "address",
          "name": "owner",
          "type": "address"
        },
        {
          "internalType": "address",
          "name": "operator",
          "type": "address"
        },
        {
          "internalType": "bool",
          "name": "approved",
          "type": "bool"
        },
        {
          "components": [
            {
              "internalType": "uint8",
              "name": "v",
              "type": "uint8"
            },
            {
              "internalType": "bytes32",
              "name": "r",
              "type": "bytes32"
            },
            {
              "internalType": "bytes32",
              "name": "s",
              "type": "bytes32"
            },
            {
              "internalType": "uint256",
              "name": "deadline",
              "type": "uint256"
            }
          ],
          "internalType": "struct DataTypes.EIP712Signature",
          "name": "sig",
          "type": "tuple"
        }
      ],
      "name": "permitForAll",
      "outputs": [],
      "stateMutability": "nonpayable",
      "type": "function"
    },
    {
      "inputs": [
        {
          "components": [
            {
              "internalType": "uint256",
              "name": "profileId",
              "type": "uint256"
            },
            {
              "internalType": "string",
              "name": "contentURI",
              "type": "string"
            },
            {
              "internalType": "address",
              "name": "collectModule",
              "type": "address"
            },
            {
              "internalType": "bytes",
              "name": "collectModuleData",
              "type": "bytes"
            },
            {
              "internalType": "address",
              "name": "referenceModule",
              "type": "address"
            },
            {
              "internalType": "bytes",
              "name": "referenceModuleData",
              "type": "bytes"
            }
          ],
          "internalType": "struct DataTypes.PostData",
          "name": "vars",
          "type": "tuple"
        }
      ],
      "name": "post",
      "outputs": [],
      "stateMutability": "nonpayable",
      "type": "function"
    },
    {
      "inputs": [
        {
          "components": [
            {
              "internalType": "uint256",
              "name": "profileId",
              "type": "uint256"
            },
            {
              "internalType": "string",
              "name": "contentURI",
              "type": "string"
            },
            {
              "internalType": "address",
              "name": "collectModule",
              "type": "address"
            },
            {
              "internalType": "bytes",
              "name": "collectModuleData",
              "type": "bytes"
            },
            {
              "internalType": "address",
              "name": "referenceModule",
              "type": "address"
            },
            {
              "internalType": "bytes",
              "name": "referenceModuleData",
              "type": "bytes"
            },
            {
              "components": [
                {
                  "internalType": "uint8",
                  "name": "v",
                  "type": "uint8"
                },
                {
                  "internalType": "bytes32",
                  "name": "r",
                  "type": "bytes32"
                },
                {
                  "internalType": "bytes32",
                  "name": "s",
                  "type": "bytes32"
                },
                {
                  "internalType": "uint256",
                  "name": "deadline",
                  "type": "uint256"
                }
              ],
              "internalType": "struct DataTypes.EIP712Signature",
              "name": "sig",
              "type": "tuple"
            }
          ],
          "internalType": "struct DataTypes.PostWithSigData",
          "name": "vars",
          "type": "tuple"
        }
      ],
      "name": "postWithSig",
      "outputs": [],
      "stateMutability": "nonpayable",
      "type": "function"
    },
    {
      "inputs": [
        {
          "internalType": "address",
          "name": "from",
          "type": "address"
        },
        {
          "internalType": "address",
          "name": "to",
          "type": "address"
        },
        {
          "internalType": "uint256",
          "name": "tokenId",
          "type": "uint256"
        }
      ],
      "name": "safeTransferFrom",
      "outputs": [],
      "stateMutability": "nonpayable",
      "type": "function"
    },
    {
      "inputs": [
        {
          "internalType": "address",
          "name": "from",
          "type": "address"
        },
        {
          "internalType": "address",
          "name": "to",
          "type": "address"
        },
        {
          "internalType": "uint256",
          "name": "tokenId",
          "type": "uint256"
        },
        {
          "internalType": "bytes",
          "name": "_data",
          "type": "bytes"
        }
      ],
      "name": "safeTransferFrom",
      "outputs": [],
      "stateMutability": "nonpayable",
      "type": "function"
    },
    {
      "inputs": [
        {
          "internalType": "address",
          "name": "operator",
          "type": "address"
        },
        {
          "internalType": "bool",
          "name": "approved",
          "type": "bool"
        }
      ],
      "name": "setApprovalForAll",
      "outputs": [],
      "stateMutability": "nonpayable",
      "type": "function"
    },
    {
      "inputs": [
        {
          "internalType": "uint256",
          "name": "profileId",
          "type": "uint256"
        },
        {
          "internalType": "address",
          "name": "dispatcher",
          "type": "address"
        }
      ],
      "name": "setDispatcher",
      "outputs": [],
      "stateMutability": "nonpayable",
      "type": "function"
    },
    {
      "inputs": [
        {
          "components": [
            {
              "internalType": "uint256",
              "name": "profileId",
              "type": "uint256"
            },
            {
              "internalType": "address",
              "name": "dispatcher",
              "type": "address"
            },
            {
              "components": [
                {
                  "internalType": "uint8",
                  "name": "v",
                  "type": "uint8"
                },
                {
                  "internalType": "bytes32",
                  "name": "r",
                  "type": "bytes32"
                },
                {
                  "internalType": "bytes32",
                  "name": "s",
                  "type": "bytes32"
                },
                {
                  "internalType": "uint256",
                  "name": "deadline",
                  "type": "uint256"
                }
              ],
              "internalType": "struct DataTypes.EIP712Signature",
              "name": "sig",
              "type": "tuple"
            }
          ],
          "internalType": "struct DataTypes.SetDispatcherWithSigData",
          "name": "vars",
          "type": "tuple"
        }
      ],
      "name": "setDispatcherWithSig",
      "outputs": [],
      "stateMutability": "nonpayable",
      "type": "function"
    },
    {
      "inputs": [
        {
          "internalType": "address",
          "name": "newEmergencyAdmin",
          "type": "address"
        }
      ],
      "name": "setEmergencyAdmin",
      "outputs": [],
      "stateMutability": "nonpayable",
      "type": "function"
    },
    {
      "inputs": [
        {
          "internalType": "uint256",
          "name": "profileId",
          "type": "uint256"
        },
        {
          "internalType": "address",
          "name": "followModule",
          "type": "address"
        },
        {
          "internalType": "bytes",
          "name": "followModuleData",
          "type": "bytes"
        }
      ],
      "name": "setFollowModule",
      "outputs": [],
      "stateMutability": "nonpayable",
      "type": "function"
    },
    {
      "inputs": [
        {
          "components": [
            {
              "internalType": "uint256",
              "name": "profileId",
              "type": "uint256"
            },
            {
              "internalType": "address",
              "name": "followModule",
              "type": "address"
            },
            {
              "internalType": "bytes",
              "name": "followModuleData",
              "type": "bytes"
            },
            {
              "components": [
                {
                  "internalType": "uint8",
                  "name": "v",
                  "type": "uint8"
                },
                {
                  "internalType": "bytes32",
                  "name": "r",
                  "type": "bytes32"
                },
                {
                  "internalType": "bytes32",
                  "name": "s",
                  "type": "bytes32"
                },
                {
                  "internalType": "uint256",
                  "name": "deadline",
                  "type": "uint256"
                }
              ],
              "internalType": "struct DataTypes.EIP712Signature",
              "name": "sig",
              "type": "tuple"
            }
          ],
          "internalType": "struct DataTypes.SetFollowModuleWithSigData",
          "name": "vars",
          "type": "tuple"
        }
      ],
      "name": "setFollowModuleWithSig",
      "outputs": [],
      "stateMutability": "nonpayable",
      "type": "function"
    },
    {
      "inputs": [
        {
          "internalType": "uint256",
          "name": "profileId",
          "type": "uint256"
        },
        {
          "internalType": "string",
          "name": "followNFTURI",
          "type": "string"
        }
      ],
      "name": "setFollowNFTURI",
      "outputs": [],
      "stateMutability": "nonpayable",
      "type": "function"
    },
    {
      "inputs": [
        {
          "components": [
            {
              "internalType": "uint256",
              "name": "profileId",
              "type": "uint256"
            },
            {
              "internalType": "string",
              "name": "followNFTURI",
              "type": "string"
            },
            {
              "components": [
                {
                  "internalType": "uint8",
                  "name": "v",
                  "type": "uint8"
                },
                {
                  "internalType": "bytes32",
                  "name": "r",
                  "type": "bytes32"
                },
                {
                  "internalType": "bytes32",
                  "name": "s",
                  "type": "bytes32"
                },
                {
                  "internalType": "uint256",
                  "name": "deadline",
                  "type": "uint256"
                }
              ],
              "internalType": "struct DataTypes.EIP712Signature",
              "name": "sig",
              "type": "tuple"
            }
          ],
          "internalType": "struct DataTypes.SetFollowNFTURIWithSigData",
          "name": "vars",
          "type": "tuple"
        }
      ],
      "name": "setFollowNFTURIWithSig",
      "outputs": [],
      "stateMutability": "nonpayable",
      "type": "function"
    },
    {
      "inputs": [
        {
          "internalType": "address",
          "name": "newGovernance",
          "type": "address"
        }
      ],
      "name": "setGovernance",
      "outputs": [],
      "stateMutability": "nonpayable",
      "type": "function"
    },
    {
      "inputs": [
        {
          "internalType": "uint256",
          "name": "profileId",
          "type": "uint256"
        },
        {
          "internalType": "string",
          "name": "imageURI",
          "type": "string"
        }
      ],
      "name": "setProfileImageURI",
      "outputs": [],
      "stateMutability": "nonpayable",
      "type": "function"
    },
    {
      "inputs": [
        {
          "components": [
            {
              "internalType": "uint256",
              "name": "profileId",
              "type": "uint256"
            },
            {
              "internalType": "string",
              "name": "imageURI",
              "type": "string"
            },
            {
              "components": [
                {
                  "internalType": "uint8",
                  "name": "v",
                  "type": "uint8"
                },
                {
                  "internalType": "bytes32",
                  "name": "r",
                  "type": "bytes32"
                },
                {
                  "internalType": "bytes32",
                  "name": "s",
                  "type": "bytes32"
                },
                {
                  "internalType": "uint256",
                  "name": "deadline",
                  "type": "uint256"
                }
              ],
              "internalType": "struct DataTypes.EIP712Signature",
              "name": "sig",
              "type": "tuple"
            }
          ],
          "internalType": "struct DataTypes.SetProfileImageURIWithSigData",
          "name": "vars",
          "type": "tuple"
        }
      ],
      "name": "setProfileImageURIWithSig",
      "outputs": [],
      "stateMutability": "nonpayable",
      "type": "function"
    },
    {
      "inputs": [
        {
          "internalType": "enum DataTypes.ProtocolState",
          "name": "newState",
          "type": "uint8"
        }
      ],
      "name": "setState",
      "outputs": [],
      "stateMutability": "nonpayable",
      "type": "function"
    },
    {
      "inputs": [
        {
          "internalType": "address",
          "name": "",
          "type": "address"
        }
      ],
      "name": "sigNonces",
      "outputs": [
        {
          "internalType": "uint256",
          "name": "",
          "type": "uint256"
        }
      ],
      "stateMutability": "view",
      "type": "function"
    },
    {
      "inputs": [
        {
          "internalType": "bytes4",
          "name": "interfaceId",
          "type": "bytes4"
        }
      ],
      "name": "supportsInterface",
      "outputs": [
        {
          "internalType": "bool",
          "name": "",
          "type": "bool"
        }
      ],
      "stateMutability": "view",
      "type": "function"
    },
    {
      "inputs": [],
      "name": "symbol",
      "outputs": [
        {
          "internalType": "string",
          "name": "",
          "type": "string"
        }
      ],
      "stateMutability": "view",
      "type": "function"
    },
    {
      "inputs": [
        {
          "internalType": "uint256",
          "name": "index",
          "type": "uint256"
        }
      ],
      "name": "tokenByIndex",
      "outputs": [
        {
          "internalType": "uint256",
          "name": "",
          "type": "uint256"
        }
      ],
      "stateMutability": "view",
      "type": "function"
    },
    {
      "inputs": [
        {
          "internalType": "uint256",
          "name": "tokenId",
          "type": "uint256"
        }
      ],
      "name": "tokenDataOf",
      "outputs": [
        {
          "components": [
            {
              "internalType": "address",
              "name": "owner",
              "type": "address"
            },
            {
              "internalType": "uint96",
              "name": "mintTimestamp",
              "type": "uint96"
            }
          ],
          "internalType": "struct IERC721Time.TokenData",
          "name": "",
          "type": "tuple"
        }
      ],
      "stateMutability": "view",
      "type": "function"
    },
    {
      "inputs": [
        {
          "internalType": "address",
          "name": "owner",
          "type": "address"
        },
        {
          "internalType": "uint256",
          "name": "index",
          "type": "uint256"
        }
      ],
      "name": "tokenOfOwnerByIndex",
      "outputs": [
        {
          "internalType": "uint256",
          "name": "",
          "type": "uint256"
        }
      ],
      "stateMutability": "view",
      "type": "function"
    },
    {
      "inputs": [
        {
          "internalType": "uint256",
          "name": "tokenId",
          "type": "uint256"
        }
      ],
      "name": "tokenURI",
      "outputs": [
        {
          "internalType": "string",
          "name": "",
          "type": "string"
        }
      ],
      "stateMutability": "view",
      "type": "function"
    },
    {
      "inputs": [],
      "name": "totalSupply",
      "outputs": [
        {
          "internalType": "uint256",
          "name": "",
          "type": "uint256"
        }
      ],
      "stateMutability": "view",
      "type": "function"
    },
    {
      "inputs": [
        {
          "internalType": "address",
          "name": "from",
          "type": "address"
        },
        {
          "internalType": "address",
          "name": "to",
          "type": "address"
        },
        {
          "internalType": "uint256",
          "name": "tokenId",
          "type": "uint256"
        }
      ],
      "name": "transferFrom",
      "outputs": [],
      "stateMutability": "nonpayable",
      "type": "function"
    },
    {
      "inputs": [
        {
          "internalType": "address",
          "name": "collectModule",
          "type": "address"
        },
        {
          "internalType": "bool",
          "name": "whitelist",
          "type": "bool"
        }
      ],
      "name": "whitelistCollectModule",
      "outputs": [],
      "stateMutability": "nonpayable",
      "type": "function"
    },
    {
      "inputs": [
        {
          "internalType": "address",
          "name": "followModule",
          "type": "address"
        },
        {
          "internalType": "bool",
          "name": "whitelist",
          "type": "bool"
        }
      ],
      "name": "whitelistFollowModule",
      "outputs": [],
      "stateMutability": "nonpayable",
      "type": "function"
    },
    {
      "inputs": [
        {
          "internalType": "address",
          "name": "profileCreator",
          "type": "address"
        },
        {
          "internalType": "bool",
          "name": "whitelist",
          "type": "bool"
        }
      ],
      "name": "whitelistProfileCreator",
      "outputs": [],
      "stateMutability": "nonpayable",
      "type": "function"
    },
    {
      "inputs": [
        {
          "internalType": "address",
          "name": "referenceModule",
          "type": "address"
        },
        {
          "internalType": "bool",
          "name": "whitelist",
          "type": "bool"
        }
      ],
      "name": "whitelistReferenceModule",
      "outputs": [],
      "stateMutability": "nonpayable",
      "type": "function"
    }
  ],
  "bytecode": "0x60e06040526000600b553480156200001657600080fd5b5060405162005d4b38038062005d4b833981016040819052620000399162000072565b306080526001600160a01b0391821660a0521660c052620000aa565b80516001600160a01b03811681146200006d57600080fd5b919050565b600080604083850312156200008657600080fd5b620000918362000055565b9150620000a16020840162000055565b90509250929050565b60805160a05160c051615c63620000e860003960008181611c2701526126db01526000818161207d01526133de01526000610cb40152615c636000f3fe608060405234801561001057600080fd5b506004361061043e5760003560e01c806386e2947b11610236578063b88d4fde1161013b578063d923d20c116100c3578063ed24911d11610087578063ed24911d14610b2f578063f08f4f6414610b37578063f990ccd714610b57578063fb78ae6c14610b77578063ffea138e14610b8a57600080fd5b8063d923d20c14610a8e578063dd69cdb114610aba578063e985e9c514610acd578063ec81d19414610b09578063ecfab8fa14610b1c57600080fd5b8063bfd24f471161010a578063bfd24f47146109f5578063c0da9bcd14610a08578063c6b5d06c14610a48578063c736c99014610a5b578063c87b56dd14610a7b57600080fd5b8063b88d4fde146109a9578063bd12d3f0146109bc578063bdfdd4bc146109cf578063bfbf0b4b146109e257600080fd5b8063a2c79772116101be578063ad3e72bf1161018d578063ad3e72bf146108f4578063af05dd2214610920578063b48951e41461094c578063b5a314961461095f578063b7984c051461097257600080fd5b8063a2c797721461088f578063a6d8e1e4146108a2578063a9ec6563146108b5578063ab033ea9146108e157600080fd5b80638f14b45f116102055780638f14b45f1461083b57806395d89b411461084e578063963ff141146108565780639b84a14c14610869578063a22cb4651461087c57600080fd5b806386e2947b146107d657806389028a13146107e95780638e204fb4146107fc5780638e4fd6a91461082857600080fd5b80633a15ff0711610347578063540528b9116102cf5780636a4e66d2116102935780636a4e66d2146107775780636dea40b31461078a57806370a082311461079d5780637ef67f99146107b057806384114ad4146107c357600080fd5b8063540528b9146106c957806356de96db146106f257806357ff49f6146107055780635ca3eebf1461073c5780636352211e1461076457600080fd5b806342842e0e1161031657806342842e0e1461064657806342966c68146106595780634f6ccce71461066c57806350ddf35c1461067f57806352aaef551461069257600080fd5b80633a15ff07146105ed5780633b28b89f1461060d5780633b508132146106205780634187e4c51461063357600080fd5b806320905506116103ca5780632f745c59116103995780632f745c591461058157806331dcebe31461059457806331fff07c146105a757806335da3394146105c7578063374c9473146105da57600080fd5b8063209055061461053757806320fa728a1461054a57806323b872dd1461055d578063289b3c0d1461057057600080fd5b8063081812fc11610411578063081812fc146104a8578063095ea7b3146104d357806318160ddd146104e65780631865c57d146104f85780631cbb26201461050b57600080fd5b806301ffc9a714610443578063054871b81461046b57806306fdde0314610480578063077f224a14610495575b600080fd5b61045661045136600461486e565b610b9d565b60405190151581526020015b60405180910390f35b61047e6104793660046148d3565b610bc8565b005b610488610c1e565b604051610462919061496b565b61047e6104a336600461499a565b610cb0565b6104bb6104b6366004614a1a565b610d4a565b6040516001600160a01b039091168152602001610462565b61047e6104e1366004614a33565b610de4565b6008545b604051908152602001610462565b600c5460ff166040516104629190614a73565b610456610519366004614a8d565b6001600160a01b03166000908152600e602052604090205460ff1690565b61047e610545366004614ab8565b610ef5565b6104ea610558366004614aeb565b610f60565b61047e61056b366004614b2c565b610f92565b6016546001600160a01b03166104bb565b6104ea61058f366004614a33565b610fc3565b61047e6105a2366004614ab8565b611059565b6105ba6105b5366004614b68565b6110bc565b6040516104629190614b8a565b61047e6105d5366004614a8d565b611145565b6104886105e8366004614a1a565b6111b2565b6104ea6105fb366004614a1a565b60009081526013602052604090205490565b61047e61061b366004614bb6565b611257565b61047e61062e366004614bea565b611438565b61047e610641366004614ab8565b6116c4565b61047e610654366004614b2c565b611727565b61047e610667366004614a1a565b611742565b6104ea61067a366004614a1a565b61175f565b6104ea61068d366004614a1a565b6117f2565b6104bb6106a0366004614b68565b60009182526014602090815260408084209284529190529020600501546001600160a01b031690565b6104bb6106d7366004614a1a565b6000908152601160205260409020546001600160a01b031690565b61047e610700366004614c25565b611888565b6104bb610713366004614b68565b60009182526014602090815260408084209284529190529020600401546001600160a01b031690565b61074f61074a366004614b68565b6118d5565b60408051928352602083019190915201610462565b6104bb610772366004614a1a565b6118fe565b61047e610785366004614c46565b611975565b61047e610798366004614c80565b6119b8565b6104ea6107ab366004614a8d565b611a4f565b61047e6107be366004614ceb565b611ad6565b61047e6107d1366004614d28565b611be6565b61047e6107e4366004614d62565b611c55565b61047e6107f7366004614da6565b611cf3565b61045661080a366004614a8d565b6001600160a01b031660009081526010602052604090205460ff1690565b61047e610836366004614bb6565b611e03565b61047e610849366004614dfb565b6120c3565b61048861223f565b61047e610864366004614e48565b61224e565b61047e610877366004614e48565b612316565b61047e61088a366004614ab8565b612470565b61047e61089d366004614e8f565b6124d8565b61047e6108b0366004614ab8565b6124fb565b6104bb6108c3366004614a1a565b6000908152601360205260409020600201546001600160a01b031690565b61047e6108ef366004614a8d565b61255e565b610456610902366004614a8d565b6001600160a01b03166000908152600f602052604090205460ff1690565b61045661092e366004614a8d565b6001600160a01b03166000908152600d602052604090205460ff1690565b61047e61095a366004614e8f565b61256f565b61048861096d366004614b68565b61274d565b6104bb610980366004614b68565b60009182526014602090815260408084209284529190529020600301546001600160a01b031690565b61047e6109b7366004614f8e565b612815565b61047e6109ca366004614e48565b61284d565b61047e6109dd366004614ff5565b6129a7565b61047e6109f0366004615030565b612a36565b61047e610a0336600461504c565b612b4c565b610a1b610a16366004614a1a565b612b67565b6040805182516001600160a01b031681526020928301516001600160601b03169281019290925201610462565b61047e610a563660046148d3565b612c35565b610a6e610a69366004614b68565b612c86565b604051610462919061506f565b610488610a89366004614a1a565b612de5565b6104bb610a9c366004614a1a565b6000908152601360205260409020600101546001600160a01b031690565b61047e610ac83660046150d9565b612e05565b610456610adb3660046150fd565b6001600160a01b03918216600090815260056020908152604080832093909416825291909152205460ff1690565b610488610b17366004614a1a565b612e20565b61047e610b2a366004615127565b612e40565b6104ea61313a565b610b4a610b45366004614a1a565b613149565b6040516104629190615162565b6104ea610b65366004614a8d565b600a6020526000908152604090205481565b61047e610b85366004615233565b61339d565b61047e610b98366004614e48565b61340c565b60006001600160e01b0319821663780e9d6360e01b1480610bc25750610bc28261348c565b92915050565b610bd06134dc565b610bd983613516565b610c198383838080601f01602080910402602001604051908101604052809392919081815260200183838082843760009201919091525061357592505050565b505050565b606060008054610c2d90615292565b80601f0160208091040260200160405190810160405280929190818152602001828054610c5990615292565b8015610ca65780601f10610c7b57610100808354040283529160200191610ca6565b820191906000526020600020905b815481529060010190602001808311610c8957829003601f168201915b5050505050905090565b60017f00000000000000000000000000000000000000000000000000000000000000006001600160a01b0316301415610cfc576040516325c7410560e21b815260040160405180910390fd5b600b548111610d1e576040516302ed543d60e51b815260040160405180910390fd5b600b819055610d2f868686866135d9565b610d39600261362a565b610d42826136a8565b505050505050565b6000818152600260205260408120546001600160a01b0316610dc85760405162461bcd60e51b815260206004820152602c60248201527f4552433732313a20617070726f76656420717565727920666f72206e6f6e657860448201526b34b9ba32b73a103a37b5b2b760a11b60648201526084015b60405180910390fd5b506000908152600460205260409020546001600160a01b031690565b6000610def826118fe565b9050806001600160a01b0316836001600160a01b03161415610e5d5760405162461bcd60e51b815260206004820152602160248201527f4552433732313a20617070726f76616c20746f2063757272656e74206f776e656044820152603960f91b6064820152608401610dbf565b336001600160a01b0382161480610e795750610e798133610adb565b610eeb5760405162461bcd60e51b815260206004820152603860248201527f4552433732313a20617070726f76652063616c6c6572206973206e6f74206f7760448201527f6e6572206e6f7220617070726f76656420666f7220616c6c00000000000000006064820152608401610dbf565b610c198383613701565b610efd61376f565b6001600160a01b0382166000818152600d6020908152604091829020805460ff191685151590811790915591514281529192917f8f617843889b94892bd44852d36ca6a7f49ecf4350a01e7b68e22d80f4ed95bc91015b60405180910390a35050565b6000808383604051610f739291906152c7565b6040805191829003909120600090815260126020522054949350505050565b610f9c338261379a565b610fb85760405162461bcd60e51b8152600401610dbf906152d7565b610c19838383613891565b6000610fce83611a4f565b82106110305760405162461bcd60e51b815260206004820152602b60248201527f455243373231456e756d657261626c653a206f776e657220696e646578206f7560448201526a74206f6620626f756e647360a81b6064820152608401610dbf565b506001600160a01b03919091166000908152600660209081526040808320938352929052205490565b61106161376f565b6001600160a01b0382166000818152600f6020908152604091829020805460ff191685151590811790915591514281529192917f6cc19a794d6a439023150cd58748eed4353190c0bb060d2e6250e2df4a68b6739101610f54565b60008115806110d8575060008381526013602052604090205482115b156110e557506003610bc2565b60008381526014602090815260408083208584529091529020600401546001600160a01b031661111757506002610bc2565b600083815260146020908152604080832085845290915290205461113d57506000610bc2565b506001610bc2565b61114d61376f565b601780546001600160a01b038381166001600160a01b03198316811790935560405191169190829033907f676c0801b0f400762e958ee31cfbb10870e70786f6761f57c8647e766b0db3d9906111a69042815260200190565b60405180910390a45050565b60008181526013602052604090206005018054606091906111d290615292565b80601f01602080910402602001604051908101604052809291908181526020018280546111fe90615292565b801561124b5780601f106112205761010080835404028352916020019161124b565b820191906000526020600020905b81548152906001019060200180831161122e57829003601f168201915b50505050509050919050565b61125f6134dc565b600061126b82356118fe565b90506000611277613a3c565b7f6f3f6455a608af1cc57ef3e5c0a49deeb88bba264ec8865b798ff07358859d4b84356112aa6040870160208801614a8d565b6112b76040880188615328565b6040516112c59291906152c7565b604080519182900382206001600160a01b0389166000908152600a6020908152929020805460018101909155611334969594939192909160c08c0135910195865260208601949094526001600160a01b039290921660408501526060840152608083015260a082015260c00190565b6040516020818303038152906040528051906020012060405160200161135b92919061536e565b60405160208183030381529060405280519060200120905061139181838560600180360381019061138c9190615389565b613ad1565b73__$1f7cbacb1f9f5d323b85b0487838426c8d$__636a7ecf1384356113bd6040870160208801614a8d565b6113ca6040880188615328565b88356000908152601360205260409081902090516001600160e01b031960e088901b168152611403959493929190600e90600401615426565b60006040518083038186803b15801561141b57600080fd5b505af415801561142f573d6000803e3d6000fd5b50505050505050565b611440613bb5565b600061144c82356118fe565b90506000611458613a3c565b7ffb8f057542e7551386ead0b891a45f102af78c47f8cc58b4a919c7cfeccd0e1e84356114886020870187615328565b6040516114969291906152c7565b60405180910390208660400160208101906114b19190614a8d565b6114be6060890189615328565b6040516114cc9291906152c7565b6040519081900390206114e560a08a0160808b01614a8d565b6114f260a08b018b615328565b6040516115009291906152c7565b604080519182900382206001600160a01b038c81166000908152600a6020908152908490208054600181019091559085019a909a52918301979097526060820195909552928416608084015260a083019190915290911660c082015260e0810191909152610100810191909152610120858101359082015261014001604051602081830303815290604052805190602001206040516020016115a392919061536e565b6040516020818303038152906040528051906020012090506115d481838560c00180360381019061138c9190615389565b610c1983356115e66020860186615328565b8080601f01602080910402602001604051908101604052809392919081815260200183838082843760009201919091525061162b925050506060870160408801614a8d565b6116386060880188615328565b8080601f01602080910402602001604051908101604052809392919081815260200183838082843760009201919091525061167d9250505060a0890160808a01614a8d565b61168a60a08a018a615328565b8080601f016020809104026020016040519081016040528093929190818152602001838380828437600092019190915250613c2592505050565b6116cc61376f565b6001600160a01b038216600081815260106020908152604091829020805460ff191685151590811790915591514281529192917f37872a053ef20cb52defb7c9ec20e1a87cb8dd5098ac9e76a144be263dfef5729101610f54565b610c1983838360405180602001604052806000815250612815565b61174a6134dc565b61175381613cd1565b61175c81613d01565b50565b600061176a60085490565b82106117cd5760405162461bcd60e51b815260206004820152602c60248201527f455243373231456e756d657261626c653a20676c6f62616c20696e646578206f60448201526b7574206f6620626f756e647360a01b6064820152608401610dbf565b600882815481106117e0576117e0615466565b90600052602060002001549050919050565b600081815260026020526040812054600160a01b90046001600160601b0316806118795760405162461bcd60e51b815260206004820152603260248201527f4552433732313a206d696e742074696d657374616d7020717565727920666f72604482015271103737b732bc34b9ba32b73a103a37b5b2b760711b6064820152608401610dbf565b6001600160601b031692915050565b6016546001600160a01b031633148015906118ae57506017546001600160a01b03163314155b156118cc57604051635010559960e11b815260040160405180910390fd5b61175c8161362a565b6000828152601460209081526040808320848452909152902080546001909101545b9250929050565b6000818152600260205260408120546001600160a01b031680610bc25760405162461bcd60e51b815260206004820152602960248201527f4552433732313a206f776e657220717565727920666f72206e6f6e657869737460448201526832b73a103a37b5b2b760b91b6064820152608401610dbf565b61197d613bb5565b6119878135613516565b61175c8135602083013560408401356119a66080860160608701614a8d565b6119b36080870187615328565b613d3c565b6119c06134dc565b6119c984613dad565b600084815260136020526040908190209051636a7ecf1360e01b815273__$1f7cbacb1f9f5d323b85b0487838426c8d$__91636a7ecf1391611a1991889188918891889190600e90600401615426565b60006040518083038186803b158015611a3157600080fd5b505af4158015611a45573d6000803e3d6000fd5b5050505050505050565b60006001600160a01b038216611aba5760405162461bcd60e51b815260206004820152602a60248201527f4552433732313a2062616c616e636520717565727920666f7220746865207a65604482015269726f206164647265737360b01b6064820152608401610dbf565b506001600160a01b031660009081526003602052604090205490565b6001600160a01b038316611afd576040516307eb16dd60e21b815260040160405180910390fd5b6000611b08836118fe565b90506000611b14613a3c565b6001600160a01b038381166000908152600a602090815260409182902080546001810190915582517f49ecf333e5b8c95c40fdafc95c1ad136e8914a8fb55e9dc8bb01eaa83a2df9ad81840152938a168484015260608085018a9052608085019190915287013560a0808501919091528251808503909101815260c084019092528151910120611ba7929160e00161536e565b604051602081830303815290604052805190602001209050611bd581838580360381019061138c9190615389565b611bdf8585613701565b5050505050565b611bee6134dc565b60405163334ce6f160e21b815273__$1e68a60ae0444699fe08192a29ecc09930$__9063cd339bc490611a1990339088908890889088907f00000000000000000000000000000000000000000000000000000000000000009060149060139060040161547c565b60008581526014602090815260408083208784529091529020600501546001600160a01b0316338114611c9b5760405163c6d1651b60e01b815260040160405180910390fd5b604080516001600160a01b03858116825284166020820152428183015290518591879189917f68edb7ec2c37d21b3b72233960b487f2966f4ac82b7430d39f24d1f8d6f99106919081900360600190a4505050505050565b6001600160a01b038316611d1a576040516307eb16dd60e21b815260040160405180910390fd5b6000611d24613a3c565b6001600160a01b038681166000818152600a602090815260409182902080546001810190915582517f47ab88482c90e4bb94b82a947ae78fa91fb25de1469ab491f4c15b9a0a2677ee9281019290925291810192909252918716606080830191909152861515608083015260a08201929092529084013560c082015260e00160405160208183030381529060405280519060200120604051602001611dca92919061536e565b604051602081830303815290604052805190602001209050611df881868480360381019061138c9190615389565b611bdf858585613de7565b611e0b6134dc565b6000611e1a60408301836154ca565b90506001600160401b03811115611e3357611e33614ec3565b604051908082528060200260200182016040528015611e5c578160200160208202803683370190505b50905060005b611e6f60408401846154ca565b9050811015611eea57611e8560408401846154ca565b82818110611e9557611e95615466565b9050602002810190611ea79190615328565b604051611eb59291906152c7565b6040518091039020828281518110611ecf57611ecf615466565b6020908102919091010152611ee381615529565b9050611e62565b506000611ef5613a3c565b7ffb6b7f1cd1b38daf3822aff0abbe78124db5d62a4748bcff007c15ccd6d30bc5611f2360208601866154ca565b604051602001611f34929190615544565b6040516020818303038152906040528051906020012084604051602001611f5b9190615570565b60405160208183030381529060405280519060200120600a6000886000016020810190611f889190614a8d565b6001600160a01b0316815260208082019290925260409081016000208054600181019091558151928301959095528101929092526060820152608081019190915260c08581013560a08301520160405160208183030381529060405280519060200120604051602001611ffc92919061536e565b60408051601f198184030181529190528051602091820120915061203a90829061202890860186614a8d565b61138c36879003870160608801615389565b73__$1e68a60ae0444699fe08192a29ecc09930$__63bccbaefd6120616020860186614a8d565b61206e60208701876154ca565b61207b60408901896154ca565b7f0000000000000000000000000000000000000000000000000000000000000000601360126040518963ffffffff1660e01b81526004016114039897969594939291906155eb565b6120cb613bb5565b60006120d782356118fe565b905060006120e3613a3c565b7f64f4578fc098f96a2450fbe601cb8c5318ebeb2ff72d2031a36be1ff6932d5ee8435602086013560408701356121206080890160608a01614a8d565b61212d60808a018a615328565b60405161213b9291906152c7565b604080519182900382206001600160a01b038b166000908152600a60209081529290208054600181019091556121bb989796959493919290916101008e013591019788526020880196909652604087019490945260608601929092526001600160a01b0316608085015260a084015260c083015260e08201526101000190565b604051602081830303815290604052805190602001206040516020016121e292919061536e565b60405160208183030381529060405280519060200120905061221381838560a00180360381019061138c9190615389565b610c198335602085013560408601356122326080880160608901614a8d565b6119b36080890189615328565b606060018054610c2d90615292565b612256613bb5565b6122608135613516565b61175c81356122726020840184615328565b8080601f0160208091040260200160405190810160405280939291908181526020018383808284376000920191909152506122b7925050506060850160408601614a8d565b6122c46060860186615328565b8080601f0160208091040260200160405190810160405280939291908181526020018383808284376000920191909152506123099250505060a0870160808801614a8d565b61168a60a0880188615328565b61231e6134dc565b600061232a82356118fe565b90506000612336613a3c565b7f5b9860bd835e648945b22d053515bc1f53b7d9fab4b23b1b49db15722e945d1484356123666020870187615328565b6040516123749291906152c7565b604080519182900382206001600160a01b0388166000908152600a60209081529083902080546001810190915590840195909552908201929092526060810191909152608081019190915260a0858101359082015260c001604051602081830303815290604052805190602001206040516020016123f392919061536e565b60405160208183030381529060405280519060200120905061242481838560400180360381019061138c9190615389565b610c1983356124366020860186615328565b8080601f01602080910402602001604051908101604052809392919081815260200183838082843760009201919091525061357592505050565b6001600160a01b0382163314156124c95760405162461bcd60e51b815260206004820152601960248201527f4552433732313a20617070726f766520746f2063616c6c6572000000000000006044820152606401610dbf565b6124d4338383613de7565b5050565b6124e0613bb5565b6124ea8135613516565b61175c6124f6826156bd565b613e54565b61250361376f565b6001600160a01b0382166000818152600e6020908152604091829020805460ff191685151590811790915591514281529192917f52c5b7889df9f12f84ec3da051e854e5876678370d8357959c23ef59dd6486df9101610f54565b61256661376f565b61175c816136a8565b6125776134dc565b6000612581613a3c565b7f7f9b4ea1fc678b4fda1611ac5cbd28f339e235d89b1540635e9b2e0223a3c101602084013560408501356125b96060870187615328565b6040516125c79291906152c7565b604051908190039020600a60006125e160208a018a614a8d565b6001600160a01b0316815260208082019290925260409081016000208054600181019091558151928301969096528101939093526060830191909152608082015260a081019190915260e08481013560c0830152016040516020818303038152906040528051906020012060405160200161265d92919061536e565b60408051601f198184030181529190528051602091820120915061269b90829061268990850185614a8d565b61138c36869003860160808701615389565b73__$1e68a60ae0444699fe08192a29ecc09930$__63cd339bc46126c26020850185614a8d565b602085013560408601356126d96060880188615328565b7f0000000000000000000000000000000000000000000000000000000000000000601460136040518963ffffffff1660e01b815260040161272198979695949392919061547c565b60006040518083038186803b15801561273957600080fd5b505af4158015610d42573d6000803e3d6000fd5b606060008061275e85856014613f0c565b506000828152601460209081526040808320848452909152902060020180549294509092509061278d90615292565b80601f01602080910402602001604051908101604052809291908181526020018280546127b990615292565b80156128065780601f106127db57610100808354040283529160200191612806565b820191906000526020600020905b8154815290600101906020018083116127e957829003601f168201915b50505050509250505092915050565b61281f338361379a565b61283b5760405162461bcd60e51b8152600401610dbf906152d7565b61284784848484613fce565b50505050565b6128556134dc565b600061286182356118fe565b9050600061286d613a3c565b7fd8d76e8b2b26e1ebe72def13fb559a68561ef064055b0de01f955bc26e25d42f843561289d6020870187615328565b6040516128ab9291906152c7565b604080519182900382206001600160a01b0388166000908152600a60209081529083902080546001810190915590840195909552908201929092526060810191909152608081019190915260a0858101359082015260c0016040516020818303038152906040528051906020012060405160200161292a92919061536e565b60405160208183030381529060405280519060200120905061295b81838560400180360381019061138c9190615389565b610c19833561296d6020860186615328565b8080601f01602080910402602001604051908101604052809392919081815260200183838082843760009201919091525061400192505050565b6000848152601360205260409020600201546001600160a01b03163381146129e25760405163646785d560e11b815260040160405180910390fd5b604080516001600160a01b0385811682528416602082015242818301529051859187917f4996ad2257e7db44908136c43128cc10ca988096f67dc6bb0bcee11d151368fb9181900360600190a35050505050565b612a3e6134dc565b6000612a4a82356118fe565b90506000612a56613a3c565b7f77ba3e9f5fa75343bbad1241fb539a0064de97694b47d463d1eb5c54aba11f0f8435612a896040870160208801614a8d565b6001600160a01b038681166000908152600a602090815260409182902080546001810190915582519182019690965290810193909352166060820152608081019190915260a0858101359082015260c00160405160208183030381529060405280519060200120604051602001612b0192919061536e565b604051602081830303815290604052805190602001209050612b3281838560400180360381019061138c9190615389565b610c198335612b476040860160208701614a8d565b614059565b612b546134dc565b612b5d82613dad565b6124d48282614059565b60408051808201909152600080825260208201526000828152600260205260409020546001600160a01b0316612bf65760405162461bcd60e51b815260206004820152602e60248201527f4552433732313a20746f6b656e206461746120717565727920666f72206e6f6e60448201526d32bc34b9ba32b73a103a37b5b2b760911b6064820152608401610dbf565b506000908152600260209081526040918290208251808401909352546001600160a01b0381168352600160a01b90046001600160601b03169082015290565b612c3d6134dc565b612c4683613516565b610c198383838080601f01602080910402602001604051908101604052809392919081815260200183838082843760009201919091525061400192505050565b612cda6040518060c0016040528060008152602001600081526020016060815260200160006001600160a01b0316815260200160006001600160a01b0316815260200160006001600160a01b031681525090565b6014600084815260200190815260200160002060008381526020019081526020016000206040518060c00160405290816000820154815260200160018201548152602001600282018054612d2d90615292565b80601f0160208091040260200160405190810160405280929190818152602001828054612d5990615292565b8015612da65780601f10612d7b57610100808354040283529160200191612da6565b820191906000526020600020905b815481529060010190602001808311612d8957829003601f168201915b505050918352505060038201546001600160a01b0390811660208301526004830154811660408301526005909201549091166060909101529392505050565b60008181526013602052604090206004018054606091906111d290615292565b612e0d6134dc565b612e1782826140b6565b6124d482613d01565b60008181526013602052604090206003018054606091906111d290615292565b612e48613bb5565b6000612e5482356118fe565b90506000612e60613a3c565b7fb30910150df56294e05b2d03e181803697a2b935abb1b9bdddde9310f618fe9b8435612e906020870187615328565b604051612e9e9291906152c7565b604051809103902086604001358760600135886080016020810190612ec39190614a8d565b612ed060a08b018b615328565b604051612ede9291906152c7565b604051908190039020612ef760e08c0160c08d01614a8d565b612f0460e08d018d615328565b604051612f129291906152c7565b604080519182900382206001600160a01b03808f166000908152600a6020908152908490208054600181019091559085019c909c52918301999099526060820197909752608081019590955260a085019390935290841660c084015260e083015290911661010082015261012081019190915261014081019190915261016080860135908201526101800160405160208183030381529060405280519060200120604051602001612fc492919061536e565b604051602081830303815290604052805190602001209050612ff68183856101000180360381019061138c9190615389565b610c196040518061010001604052808560000135815260200185806020019061301f9190615328565b8080601f0160208091040260200160405190810160405280939291908181526020018383808284376000920191909152505050908252506040808701356020830152606080880135918301919091520161307f60a0870160808801614a8d565b6001600160a01b0316815260200161309a60a0870187615328565b8080601f0160208091040260200160405190810160405280939291908181526020018383808284376000920191909152505050908252506020016130e460e0870160c08801614a8d565b6001600160a01b031681526020016130ff60e0870187615328565b8080601f0160208091040260200160405190810160405280939291908181526020018383808284376000920191909152505050915250613e54565b6000613144613a3c565b905090565b6131946040518060c001604052806000815260200160006001600160a01b0316815260200160006001600160a01b031681526020016060815260200160608152602001606081525090565b600082815260136020908152604091829020825160c0810184528154815260018201546001600160a01b03908116938201939093526002820154909216928201929092526003820180549192916060840191906131f090615292565b80601f016020809104026020016040519081016040528092919081815260200182805461321c90615292565b80156132695780601f1061323e57610100808354040283529160200191613269565b820191906000526020600020905b81548152906001019060200180831161324c57829003601f168201915b5050505050815260200160048201805461328290615292565b80601f01602080910402602001604051908101604052809291908181526020018280546132ae90615292565b80156132fb5780601f106132d0576101008083540402835291602001916132fb565b820191906000526020600020905b8154815290600101906020018083116132de57829003601f168201915b5050505050815260200160058201805461331490615292565b80601f016020809104026020016040519081016040528092919081815260200182805461334090615292565b801561338d5780601f106133625761010080835404028352916020019161338d565b820191906000526020600020905b81548152906001019060200180831161337057829003601f168201915b5050505050815250509050919050565b6133a56134dc565b60405163bccbaefd60e01b815273__$1e68a60ae0444699fe08192a29ecc09930$__9063bccbaefd90611a1990339088908890889088907f0000000000000000000000000000000000000000000000000000000000000000906013906012906004016155eb565b6134146134dc565b61341c61419c565b600060156000815461342d90615529565b9182905550905061344a6134446020840184614a8d565b826141cc565b604051633f67a66f60e11b815273__$1f7cbacb1f9f5d323b85b0487838426c8d$__90637ecf4cde906127219085908590601290601390600e9060040161578f565b60006001600160e01b031982166380ac58cd60e01b14806134bd57506001600160e01b03198216635b5e139f60e01b145b80610bc257506301ffc9a760e01b6001600160e01b0319831614610bc2565b6002600c5460ff1660028111156134f5576134f5614a5d565b1415613514576040516313d0ff5960e31b815260040160405180910390fd5b565b61351f816118fe565b6001600160a01b0316336001600160a01b03161415801561355757506000818152601160205260409020546001600160a01b03163314155b1561175c5760405163f33ac98f60e01b815260040160405180910390fd5b6000828152601360209081526040909120825161359a9260049092019184019061474b565b50817fd5a5879cad33c830cc1432c1850107029a09c80c60e9bce1ecd08d24880bd46c82426040516135cd929190615886565b60405180910390a25050565b6135e58484848461431d565b7f414cd0b34676984f09a5f76ce9718d4062e50283abe0e7e274a9a5b4e0c99c30848484844260405161361c9594939291906158a8565b60405180910390a150505050565b600c805460ff811691839160ff1916600183600281111561364d5761364d614a5d565b021790555081600281111561366457613664614a5d565b81600281111561367657613676614a5d565b60405142815233907fa2f9a1499fc1f9b7796d21fe5761290ccb7e0ef6ccf35fa58b668f304a62a1ca906020016111a6565b601680546001600160a01b038381166001600160a01b03198316811790935560405191169190829033907fe552a55455b740845a5c07ed445d1724142fc997b389835495a29b30cddc1ccd906111a69042815260200190565b600081815260046020526040902080546001600160a01b0319166001600160a01b0384169081179091558190613736826118fe565b6001600160a01b03167f8c5be1e5ebec7d5bd14f71427d1e84f3dd0314c0f7b2291e5b200ac8c7c3b92560405160405180910390a45050565b6016546001600160a01b0316331461351457604051632d5be4cb60e21b815260040160405180910390fd5b6000818152600260205260408120546001600160a01b03166138135760405162461bcd60e51b815260206004820152602c60248201527f4552433732313a206f70657261746f7220717565727920666f72206e6f6e657860448201526b34b9ba32b73a103a37b5b2b760a11b6064820152608401610dbf565b600061381e836118fe565b9050806001600160a01b0316846001600160a01b031614806138595750836001600160a01b031661384e84610d4a565b6001600160a01b0316145b8061388957506001600160a01b0380821660009081526005602090815260408083209388168352929052205460ff165b949350505050565b826001600160a01b03166138a4826118fe565b6001600160a01b03161461390c5760405162461bcd60e51b815260206004820152602960248201527f4552433732313a207472616e73666572206f6620746f6b656e2074686174206960448201526839903737ba1037bbb760b91b6064820152608401610dbf565b6001600160a01b03821661396e5760405162461bcd60e51b8152602060048201526024808201527f4552433732313a207472616e7366657220746f20746865207a65726f206164646044820152637265737360e01b6064820152608401610dbf565b613979838383614336565b613984600082613701565b6001600160a01b03831660009081526003602052604081208054600192906139ad9084906158e2565b90915550506001600160a01b03821660009081526003602052604081208054600192906139db9084906158f9565b909155505060008181526002602052604080822080546001600160a01b0319166001600160a01b0386811691821790925591518493918716917fddf252ad1be2c89b69c2b068fc378daa952ba7f163c4a11628f55a4df523b3ef91a4505050565b60007f8b73c3c69bb8fe3d512ecc4cf759cc79239f7b179b0ffacaa9a75d522b39400f613a67610c1e565b80516020918201206040805192830193909352918101919091527fc89efdaa54c0f20c7adf612882df0950f5a951637e0307cdcb4c672f298b8bc660608201524660808201523060a082015260c00160405160208183030381529060405280519060200120905090565b4281606001511015613af657604051630819bdcd60e01b815260040160405180910390fd5b600060018483600001518460200151856040015160405160008152602001604052604051613b40949392919093845260ff9290921660208401526040830152606082015260800190565b6020604051602081039080840390855afa158015613b62573d6000803e3d6000fd5b5050604051601f1901519150506001600160a01b0381161580613b975750826001600160a01b0316816001600160a01b031614155b15612847576040516337e8456b60e01b815260040160405180910390fd5b6002600c5460ff166002811115613bce57613bce614a5d565b1415613bed576040516313d0ff5960e31b815260040160405180910390fd5b6001600c5460ff166002811115613c0657613c06614a5d565b141561351457604051630f392a3b60e31b815260040160405180910390fd5b73__$1f7cbacb1f9f5d323b85b0487838426c8d$__639dbf0510878787878787601360008f815260200190815260200160002060000160008154613c6890615529565b9190508190556014600f60106040518b63ffffffff1660e01b8152600401613c999a99989796959493929190615911565b60006040518083038186803b158015613cb157600080fd5b505af4158015613cc5573d6000803e3d6000fd5b50505050505050505050565b613cdb338261379a565b613cf857604051636d8a29e760e11b815260040160405180910390fd5b61175c81614369565b6000818152601360205260408082209051613d1f9160030190615998565b604080519182900390912060009081526012602052908120555050565b73__$1f7cbacb1f9f5d323b85b0487838426c8d$__638588c2ff878787878787601360008f815260200190815260200160002060000160008154613d7f90615529565b919050819055601460106040518a63ffffffff1660e01b8152600401613c9999989796959493929190615a34565b613db6816118fe565b6001600160a01b0316336001600160a01b03161461175c5760405163f194fae560e01b815260040160405180910390fd5b6001600160a01b03838116600081815260056020908152604080832094871680845294825291829020805460ff191686151590811790915591519182527f17307eab39ab6107e8899845ad3d59bd9653f200f220920489ca2b5937696c31910160405180910390a3505050565b805160009081526013602052604090205473__$1f7cbacb1f9f5d323b85b0487838426c8d$__9063e63aa93e908390613e8e9060016158f9565b60136014600f60106040518763ffffffff1660e01b8152600401613eb796959493929190615a8b565b60006040518083038186803b158015613ecf57600080fd5b505af4158015613ee3573d6000803e3d6000fd5b505082516000908152601360205260408120805493509150613f0483615529565b919050555050565b600083815260208281526040808320858452909152812060040154819081906001600160a01b03168015613f47578693508592509050613fc5565b60008781526020868152604080832089845290915290205480613f7d5760405163a43d2a7160e01b815260040160405180910390fd5b6000888152602087815260408083208a84528252808320600101548484528983528184208185529092529091206004015491955093506001600160a01b03169150613fc59050565b93509350939050565b613fd9848484613891565b613fe584848484614405565b6128475760405162461bcd60e51b8152600401610dbf90615b6b565b600082815260136020908152604090912082516140269260059092019184019061474b565b50817fe82886e1af6fcab5caef13815b22f51384e970c367a785f265d13860a7d6966d82426040516135cd929190615886565b60008281526011602090815260409182902080546001600160a01b0319166001600160a01b038516908117909155915142815284917f22baaec4952f35f59e45bd2ddb287e1ccc6d319375770c09428eb8f8d604e0659101610f54565b60006140c1836118fe565b905060006140cd613a3c565b6001600160a01b0383166000908152600a6020908152604091829020805460018101909155915161413e927f108ccda6d7331b00561a3eea66a2ae331622356585681c62731e4a01aae2261a92899260608a0135910193845260208401929092526040830152606082015260800190565b6040516020818303038152906040528051906020012060405160200161416592919061536e565b60405160208183030381529060405280519060200120905061419381838580360381019061138c9190615389565b61284784614369565b336000908152600d602052604090205460ff166135145760405163561a858760e01b815260040160405180910390fd5b6001600160a01b0382166142225760405162461bcd60e51b815260206004820181905260248201527f4552433732313a206d696e7420746f20746865207a65726f20616464726573736044820152606401610dbf565b6000818152600260205260409020546001600160a01b0316156142875760405162461bcd60e51b815260206004820152601c60248201527f4552433732313a20746f6b656e20616c7265616479206d696e746564000000006044820152606401610dbf565b61429360008383614336565b6001600160a01b03821660009081526003602052604081208054600192906142bc9084906158f9565b90915550506000818152600260205260408082206001600160a01b038516600160a01b426001600160601b031602811790915590518392907fddf252ad1be2c89b69c2b068fc378daa952ba7f163c4a11628f55a4df523b3ef908290a45050565b614329600085856147cf565b50611bdf600183836147cf565b6000818152601160205260409020546001600160a01b03161561435e5761435e816000614059565b610c19838383614503565b6000614374826118fe565b905061438281600084614336565b61438d600083613701565b6001600160a01b03811660009081526003602052604081208054600192906143b69084906158e2565b9091555050600082815260026020526040808220829055518391906001600160a01b038416907fddf252ad1be2c89b69c2b068fc378daa952ba7f163c4a11628f55a4df523b3ef908390a45050565b60006001600160a01b0384163b156144f857604051630a85bd0160e11b81526001600160a01b0385169063150b7a0290614449903390899088908890600401615bbd565b6020604051808303816000875af1925050508015614484575060408051601f3d908101601f1916820190925261448191810190615bfa565b60015b6144de573d8080156144b2576040519150601f19603f3d011682016040523d82523d6000602084013e6144b7565b606091505b5080516144d65760405162461bcd60e51b8152600401610dbf90615b6b565b805181602001fd5b6001600160e01b031916630a85bd0160e11b149050613889565b506001949350505050565b6001600160a01b03831661455e5761455981600880546000838152600960205260408120829055600182018355919091527ff3f7a9fe364faab93b216da50a3214154f22a0a2b415b23a84c8169e8b636ee30155565b614581565b816001600160a01b0316836001600160a01b0316146145815761458183826145bb565b6001600160a01b03821661459857610c1981614658565b826001600160a01b0316826001600160a01b031614610c1957610c198282614707565b600060016145c884611a4f565b6145d291906158e2565b600083815260076020526040902054909150808214614625576001600160a01b03841660009081526006602090815260408083208584528252808320548484528184208190558352600790915290208190555b5060009182526007602090815260408084208490556001600160a01b039094168352600681528383209183525290812055565b60085460009061466a906001906158e2565b6000838152600960205260408120546008805493945090928490811061469257614692615466565b9060005260206000200154905080600883815481106146b3576146b3615466565b60009182526020808320909101929092558281526009909152604080822084905585825281205560088054806146eb576146eb615c17565b6001900381819060005260206000200160009055905550505050565b600061471283611a4f565b6001600160a01b039093166000908152600660209081526040808320868452825280832085905593825260079052919091209190915550565b82805461475790615292565b90600052602060002090601f01602090048101928261477957600085556147bf565b82601f1061479257805160ff19168380011785556147bf565b828001600101855582156147bf579182015b828111156147bf5782518255916020019190600101906147a4565b506147cb929150614843565b5090565b8280546147db90615292565b90600052602060002090601f0160209004810192826147fd57600085556147bf565b82601f106148165782800160ff198235161785556147bf565b828001600101855582156147bf579182015b828111156147bf578235825591602001919060010190614828565b5b808211156147cb5760008155600101614844565b6001600160e01b03198116811461175c57600080fd5b60006020828403121561488057600080fd5b813561488b81614858565b9392505050565b60008083601f8401126148a457600080fd5b5081356001600160401b038111156148bb57600080fd5b6020830191508360208285010111156118f757600080fd5b6000806000604084860312156148e857600080fd5b8335925060208401356001600160401b0381111561490557600080fd5b61491186828701614892565b9497909650939450505050565b6000815180845260005b8181101561494457602081850181015186830182015201614928565b81811115614956576000602083870101525b50601f01601f19169290920160200192915050565b60208152600061488b602083018461491e565b80356001600160a01b038116811461499557600080fd5b919050565b6000806000806000606086880312156149b257600080fd5b85356001600160401b03808211156149c957600080fd5b6149d589838a01614892565b909750955060208801359150808211156149ee57600080fd5b506149fb88828901614892565b9094509250614a0e90506040870161497e565b90509295509295909350565b600060208284031215614a2c57600080fd5b5035919050565b60008060408385031215614a4657600080fd5b614a4f8361497e565b946020939093013593505050565b634e487b7160e01b600052602160045260246000fd5b6020810160038310614a8757614a87614a5d565b91905290565b600060208284031215614a9f57600080fd5b61488b8261497e565b8035801515811461499557600080fd5b60008060408385031215614acb57600080fd5b614ad48361497e565b9150614ae260208401614aa8565b90509250929050565b60008060208385031215614afe57600080fd5b82356001600160401b03811115614b1457600080fd5b614b2085828601614892565b90969095509350505050565b600080600060608486031215614b4157600080fd5b614b4a8461497e565b9250614b586020850161497e565b9150604084013590509250925092565b60008060408385031215614b7b57600080fd5b50508035926020909101359150565b6020810160048310614a8757614a87614a5d565b600060e08284031215614bb057600080fd5b50919050565b600060208284031215614bc857600080fd5b81356001600160401b03811115614bde57600080fd5b61388984828501614b9e565b600060208284031215614bfc57600080fd5b81356001600160401b03811115614c1257600080fd5b8201610140818503121561488b57600080fd5b600060208284031215614c3757600080fd5b81356003811061488b57600080fd5b600060208284031215614c5857600080fd5b81356001600160401b03811115614c6e57600080fd5b820160a0818503121561488b57600080fd5b60008060008060608587031215614c9657600080fd5b84359350614ca66020860161497e565b925060408501356001600160401b03811115614cc157600080fd5b614ccd87828801614892565b95989497509550505050565b600060808284031215614bb057600080fd5b600080600060c08486031215614d0057600080fd5b614d098461497e565b925060208401359150614d1f8560408601614cd9565b90509250925092565b60008060008060608587031215614d3e57600080fd5b843593506020850135925060408501356001600160401b03811115614cc157600080fd5b600080600080600060a08688031215614d7a57600080fd5b853594506020860135935060408601359250614d986060870161497e565b9150614a0e6080870161497e565b60008060008060e08587031215614dbc57600080fd5b614dc58561497e565b9350614dd36020860161497e565b9250614de160408601614aa8565b9150614df08660608701614cd9565b905092959194509250565b600060208284031215614e0d57600080fd5b81356001600160401b03811115614e2357600080fd5b8201610120818503121561488b57600080fd5b600060c08284031215614bb057600080fd5b600060208284031215614e5a57600080fd5b81356001600160401b03811115614e7057600080fd5b61388984828501614e36565b60006101008284031215614bb057600080fd5b600060208284031215614ea157600080fd5b81356001600160401b03811115614eb757600080fd5b61388984828501614e7c565b634e487b7160e01b600052604160045260246000fd5b60405161010081016001600160401b0381118282101715614efc57614efc614ec3565b60405290565b600082601f830112614f1357600080fd5b81356001600160401b0380821115614f2d57614f2d614ec3565b604051601f8301601f19908116603f01168101908282118183101715614f5557614f55614ec3565b81604052838152866020858801011115614f6e57600080fd5b836020870160208301376000602085830101528094505050505092915050565b60008060008060808587031215614fa457600080fd5b614fad8561497e565b9350614fbb6020860161497e565b92506040850135915060608501356001600160401b03811115614fdd57600080fd5b614fe987828801614f02565b91505092959194509250565b6000806000806080858703121561500b57600080fd5b84359350602085013592506150226040860161497e565b9150614df06060860161497e565b600060c0828403121561504257600080fd5b61488b8383614e36565b6000806040838503121561505f57600080fd5b82359150614ae26020840161497e565b6020815281516020820152602082015160408201526000604083015160c0606084015261509f60e084018261491e565b9050606084015160018060a01b0380821660808601528060808701511660a08601528060a08701511660c086015250508091505092915050565b60008060a083850312156150ec57600080fd5b82359150614ae28460208501614cd9565b6000806040838503121561511057600080fd5b6151198361497e565b9150614ae26020840161497e565b60006020828403121561513957600080fd5b81356001600160401b0381111561514f57600080fd5b8201610180818503121561488b57600080fd5b60208152815160208201526000602083015160018060a01b0380821660408501528060408601511660608501525050606083015160c060808401526151aa60e084018261491e565b90506080840151601f19808584030160a08601526151c8838361491e565b925060a08601519150808584030160c0860152506151e6828261491e565b95945050505050565b60008083601f84011261520157600080fd5b5081356001600160401b0381111561521857600080fd5b6020830191508360208260051b85010111156118f757600080fd5b6000806000806040858703121561524957600080fd5b84356001600160401b038082111561526057600080fd5b61526c888389016151ef565b9096509450602087013591508082111561528557600080fd5b50614ccd878288016151ef565b600181811c908216806152a657607f821691505b60208210811415614bb057634e487b7160e01b600052602260045260246000fd5b8183823760009101908152919050565b60208082526031908201527f4552433732313a207472616e736665722063616c6c6572206973206e6f74206f6040820152701ddb995c881b9bdc88185c1c1c9bdd9959607a1b606082015260800190565b6000808335601e1984360301811261533f57600080fd5b8301803591506001600160401b0382111561535957600080fd5b6020019150368190038213156118f757600080fd5b61190160f01b81526002810192909252602282015260420190565b60006080828403121561539b57600080fd5b604051608081018181106001600160401b03821117156153bd576153bd614ec3565b604052823560ff811681146153d157600080fd5b808252506020830135602082015260408301356040820152606083013560608201528091505092915050565b81835281816020850137506000828201602090810191909152601f909101601f19169091010190565b8681526001600160a01b038616602082015260a06040820181905260009061545190830186886153fd565b60608301949094525060800152949350505050565b634e487b7160e01b600052603260045260246000fd5b600060018060a01b03808b16835289602084015288604084015260e060608401526154ab60e08401888a6153fd565b951660808301525060a081019290925260c09091015295945050505050565b6000808335601e198436030181126154e157600080fd5b8301803591506001600160401b038211156154fb57600080fd5b6020019150600581901b36038213156118f757600080fd5b634e487b7160e01b600052601160045260246000fd5b600060001982141561553d5761553d615513565b5060010190565b60006001600160fb1b0383111561555a57600080fd5b8260051b80858437600092019182525092915050565b815160009082906020808601845b8381101561559a5781518552938201939082019060010161557e565b50929695505050505050565b6000808335601e198436030181126155bd57600080fd5b83016020810192503590506001600160401b038111156155dc57600080fd5b8036038313156118f757600080fd5b6001600160a01b038916815260c060208083018290529082018890526000906001600160fb1b0389111561561e57600080fd5b8860051b808b60e0860137830183810360e090810160408601528101889052600588901b81016101009081019082018a60005b8b81101561568b5784840360ff1901835261566c828e6155a6565b6156778682846153fd565b955050509185019190850190600101615651565b5050506001600160a01b038816606086015292506156a7915050565b608082019390935260a001529695505050505050565b600061010082360312156156d057600080fd5b6156d8614ed9565b8235815260208301356001600160401b03808211156156f657600080fd5b61570236838701614f02565b602084015260408501356040840152606085013560608401526157276080860161497e565b608084015260a085013591508082111561574057600080fd5b61574c36838701614f02565b60a084015261575d60c0860161497e565b60c084015260e085013591508082111561577657600080fd5b5061578336828601614f02565b60e08301525092915050565b60a0815260006001600160a01b03806157a78961497e565b1660a08401526157ba60208901896155a6565b60c0808601526157cf610160860182846153fd565b9150506157df60408a018a6155a6565b609f19808785030160e08801526157f78483856153fd565b93508461580660608e0161497e565b1661010088015261581a60808d018d6155a6565b9550925080878503016101208801526158348486856153fd565b945061584360a08d018d6155a6565b945092508087860301610140880152505061585f8383836153fd565b93505050508560208301528460408301528360608301528260808301529695505050505050565b604081526000615899604083018561491e565b90508260208301529392505050565b6060815260006158bc6060830187896153fd565b82810360208401526158cf8186886153fd565b9150508260408301529695505050505050565b6000828210156158f4576158f4615513565b500390565b6000821982111561590c5761590c615513565b500190565b60006101408c835280602084015261592b8184018d61491e565b6001600160a01b038c811660408601528482036060860152909150615950828c61491e565b908a16608085015283810360a0850152905061596c818961491e565b9150508560c08301528460e083015283610100830152826101208301529b9a5050505050505050505050565b600080835481600182811c9150808316806159b457607f831692505b60208084108214156159d457634e487b7160e01b86526022600452602486fd5b8180156159e857600181146159f957615a26565b60ff19861689528489019650615a26565b60008a81526020902060005b86811015615a1e5781548b820152908501908301615a05565b505084890196505b509498975050505050505050565b60006101008b83528a602084015289604084015260018060a01b0389166060840152806080840152615a69818401888a6153fd565b60a0840196909652505060c081019290925260e0909101529695505050505050565b60c08152865160c0820152600060208801516101008060e0850152615ab46101c085018361491e565b915060408a0151818501525060608901516101208401526080890151615ae66101408501826001600160a01b03169052565b5060a089015160bf198085840301610160860152615b04838361491e565b925060c08b01519150615b236101808601836001600160a01b03169052565b60e08b0151915080858403016101a086015250615b40828261491e565b602085019990995250505060408101949094526060840192909252608083015260a090910152919050565b60208082526032908201527f4552433732313a207472616e7366657220746f206e6f6e20455243373231526560408201527131b2b4bb32b91034b6b83632b6b2b73a32b960711b606082015260800190565b6001600160a01b0385811682528416602082015260408101839052608060608201819052600090615bf09083018461491e565b9695505050505050565b600060208284031215615c0c57600080fd5b815161488b81614858565b634e487b7160e01b600052603160045260246000fdfea2646970667358221220119ca5d260c7a42591993036f08d386758d34695fe688f5656817f84460fd25264736f6c634300080a0033",
  "linkReferences": {
    "contracts/libraries/InteractionLogic.sol": {
      "InteractionLogic": [
        {
          "length": 20,
          "start": 7397
        },
        {
          "length": 20,
          "start": 8484
        },
        {
          "length": 20,
          "start": 10117
        },
        {
          "length": 20,
          "start": 13468
        }
      ]
    },
    "contracts/libraries/PublishingLogic.sol": {
      "PublishingLogic": [
        {
          "length": 20,
          "start": 5243
        },
        {
          "length": 20,
          "start": 6863
        },
        {
          "length": 20,
          "start": 13633
        },
        {
          "length": 20,
          "start": 15631
        },
        {
          "length": 20,
          "start": 15910
        },
        {
          "length": 20,
          "start": 16207
        }
      ]
    }
  },
  "deployedLinkReferences": {
    "contracts/libraries/InteractionLogic.sol": {
      "InteractionLogic": [
        {
          "length": 20,
          "start": 7165
        },
        {
          "length": 20,
          "start": 8252
        },
        {
          "length": 20,
          "start": 9885
        },
        {
          "length": 20,
          "start": 13236
        }
      ]
    },
    "contracts/libraries/PublishingLogic.sol": {
      "PublishingLogic": [
        {
          "length": 20,
          "start": 5011
        },
        {
          "length": 20,
          "start": 6631
        },
        {
          "length": 20,
          "start": 13401
        },
        {
          "length": 20,
          "start": 15399
        },
        {
          "length": 20,
          "start": 15678
        },
        {
          "length": 20,
          "start": 15975
        }
      ]
    }
  }
}