{
  "_format": "hh-sol-artifact-1",
  "contractName": "UIDataProvider",
  "sourceName": "contracts/misc/UIDataProvider.sol",
  "abi": [
    {
      "inputs": [
        {
          "internalType": "contract ILensHub",
          "name": "hub",
          "type": "address"
        }
      ],
      "stateMutability": "nonpayable",
      "type": "constructor"
    },
    {
      "inputs": [
        {
          "internalType": "uint256",
          "name": "profileId",
          "type": "uint256"
        }
      ],
      "name": "getLatestData",
      "outputs": [
        {
          "components": [
            {
              "components": [
                {
                  "internalType": "uint256",
                  "name": "pubCount",
                  "type": "uint256"
                },
                {
                  "internalType": "address",
                  "name": "followModule",
                  "type": "address"
                },
                {
                  "internalType": "address",
                  "name": "followNFT",
                  "type": "address"
                },
                {
                  "internalType": "string",
                  "name": "handle",
                  "type": "string"
                },
                {
                  "internalType": "string",
                  "name": "imageURI",
                  "type": "string"
                },
                {
                  "internalType": "string",
                  "name": "followNFTURI",
                  "type": "string"
                }
              ],
              "internalType": "struct DataTypes.ProfileStruct",
              "name": "profileStruct",
              "type": "tuple"
            },
            {
              "components": [
                {
                  "internalType": "uint256",
                  "name": "profileIdPointed",
                  "type": "uint256"
                },
                {
                  "internalType": "uint256",
                  "name": "pubIdPointed",
                  "type": "uint256"
                },
                {
                  "internalType": "string",
                  "name": "contentURI",
                  "type": "string"
                },
                {
                  "internalType": "address",
                  "name": "referenceModule",
                  "type": "address"
                },
                {
                  "internalType": "address",
                  "name": "collectModule",
                  "type": "address"
                },
                {
                  "internalType": "address",
                  "name": "collectNFT",
                  "type": "address"
                }
              ],
              "internalType": "struct DataTypes.PublicationStruct",
              "name": "publicationStruct",
              "type": "tuple"
            }
          ],
          "internalType": "struct LatestData",
          "name": "",
          "type": "tuple"
        }
      ],
      "stateMutability": "view",
      "type": "function"
    }
  ],
  "bytecode": "0x60a060405234801561001057600080fd5b5060405161070138038061070183398101604081905261002f91610040565b6001600160a01b0316608052610070565b60006020828403121561005257600080fd5b81516001600160a01b038116811461006957600080fd5b9392505050565b60805161067061009160003960008181607a015261012501526106706000f3fe608060405234801561001057600080fd5b506004361061002b5760003560e01c8063b934d4da14610030575b600080fd5b61004361003e366004610235565b610059565b604051610050919061030c565b60405180910390f35b6100616101a6565b604051633c23d3d960e21b8152600481018390526000907f00000000000000000000000000000000000000000000000000000000000000006001600160a01b03169063f08f4f6490602401600060405180830381865afa1580156100c9573d6000803e3d6000fd5b505050506040513d6000823e601f3d908101601f191682016040526100f191908101906104a5565b80516040805180820182528381529051630c736c9960e41b81526004810187905260248101839052929350909160208201907f00000000000000000000000000000000000000000000000000000000000000006001600160a01b03169063c736c99090604401600060405180830381865afa158015610174573d6000803e3d6000fd5b505050506040513d6000823e601f3d908101601f1916820160405261019c9190810190610586565b9052949350505050565b60405180604001604052806101fc6040518060c001604052806000815260200160006001600160a01b0316815260200160006001600160a01b031681526020016060815260200160608152602001606081525090565b81526040805160c0810182526000808252602082810182905260609383018490529282018190526080820181905260a082015291015290565b60006020828403121561024757600080fd5b5035919050565b60005b83811015610269578181015183820152602001610251565b83811115610278576000848401525b50505050565b6000815180845261029681602086016020860161024e565b601f01601f19169290920160200192915050565b80518252602081015160208301526000604082015160c060408501526102d360c085018261027e565b6060848101516001600160a01b039081169187019190915260808086015182169087015260a09485015116949093019390935250919050565b60208152600082516040602084015280516060840152602081015160018060a01b0380821660808601528060408401511660a08601525050606081015160c08085015261035d61012085018261027e565b90506080820151605f19808684030160e087015261037b838361027e565b925060a084015193508086840301610100870152505061039b818361027e565b9150506020840151601f198483030160408501526103b982826102aa565b95945050505050565b634e487b7160e01b600052604160045260246000fd5b60405160c0810167ffffffffffffffff811182821017156103fb576103fb6103c2565b60405290565b80516001600160a01b038116811461041857600080fd5b919050565b600082601f83011261042e57600080fd5b815167ffffffffffffffff80821115610449576104496103c2565b604051601f8301601f19908116603f01168101908282118183101715610471576104716103c2565b8160405283815286602085880101111561048a57600080fd5b61049b84602083016020890161024e565b9695505050505050565b6000602082840312156104b757600080fd5b815167ffffffffffffffff808211156104cf57600080fd5b9083019060c082860312156104e357600080fd5b6104eb6103d8565b825181526104fb60208401610401565b602082015261050c60408401610401565b604082015260608301518281111561052357600080fd5b61052f8782860161041d565b60608301525060808301518281111561054757600080fd5b6105538782860161041d565b60808301525060a08301518281111561056b57600080fd5b6105778782860161041d565b60a08301525095945050505050565b60006020828403121561059857600080fd5b815167ffffffffffffffff808211156105b057600080fd5b9083019060c082860312156105c457600080fd5b6105cc6103d8565b82518152602083015160208201526040830151828111156105ec57600080fd5b6105f88782860161041d565b60408301525061060a60608401610401565b606082015261061b60808401610401565b608082015261062c60a08401610401565b60a08201529594505050505056fea2646970667358221220e5fc69ef073013f752f4739b290fcf579ac22e2926659de82795b54df6d2359c64736f6c634300080a0033",
  "linkReferences": {},
  "deployedLinkReferences": {}
}