{
  "_format": "hh-sol-artifact-1",
  "contractName": "GovernorContract",
  "sourceName": "contracts/governance_standard/GovernorContract.sol",
  "abi": [
    {
      "inputs": [
        {
          "internalType": "contract FollowNFT",
          "name": "_token",
          "type": "address"
        },
        {
          "internalType": "contract TimelockController",
          "name": "_timelock",
          "type": "address"
        },
        {
          "internalType": "uint256",
          "name": "_quorumPercentage",
          "type": "uint256"
        },
        {
          "internalType": "uint256",
          "name": "_votingPeriod",
          "type": "uint256"
        },
        {
          "internalType": "uint256",
          "name": "_votingDelay",
          "type": "uint256"
        }
      ],
      "stateMutability": "nonpayable",
      "type": "constructor"
    },
    {
      "anonymous": false,
      "inputs": [
        {
          "indexed": false,
          "internalType": "uint256",
          "name": "proposalId",
          "type": "uint256"
        }
      ],
      "name": "ProposalCanceled",
      "type": "event"
    },
    {
      "anonymous": false,
      "inputs": [
        {
          "indexed": false,
          "internalType": "uint256",
          "name": "proposalId",
          "type": "uint256"
        },
        {
          "indexed": false,
          "internalType": "address",
          "name": "proposer",
          "type": "address"
        },
        {
          "indexed": false,
          "internalType": "address[]",
          "name": "targets",
          "type": "address[]"
        },
        {
          "indexed": false,
          "internalType": "uint256[]",
          "name": "values",
          "type": "uint256[]"
        },
        {
          "indexed": false,
          "internalType": "string[]",
          "name": "signatures",
          "type": "string[]"
        },
        {
          "indexed": false,
          "internalType": "bytes[]",
          "name": "calldatas",
          "type": "bytes[]"
        },
        {
          "indexed": false,
          "internalType": "uint256",
          "name": "startBlock",
          "type": "uint256"
        },
        {
          "indexed": false,
          "internalType": "uint256",
          "name": "endBlock",
          "type": "uint256"
        },
        {
          "indexed": false,
          "internalType": "string",
          "name": "description",
          "type": "string"
        }
      ],
      "name": "ProposalCreated",
      "type": "event"
    },
    {
      "anonymous": false,
      "inputs": [
        {
          "indexed": false,
          "internalType": "uint256",
          "name": "proposalId",
          "type": "uint256"
        }
      ],
      "name": "ProposalExecuted",
      "type": "event"
    },
    {
      "anonymous": false,
      "inputs": [
        {
          "indexed": false,
          "internalType": "uint256",
          "name": "proposalId",
          "type": "uint256"
        },
        {
          "indexed": false,
          "internalType": "uint256",
          "name": "eta",
          "type": "uint256"
        }
      ],
      "name": "ProposalQueued",
      "type": "event"
    },
    {
      "anonymous": false,
      "inputs": [
        {
          "indexed": false,
          "internalType": "uint256",
          "name": "oldQuorumNumerator",
          "type": "uint256"
        },
        {
          "indexed": false,
          "internalType": "uint256",
          "name": "newQuorumNumerator",
          "type": "uint256"
        }
      ],
      "name": "QuorumNumeratorUpdated",
      "type": "event"
    },
    {
      "anonymous": false,
      "inputs": [
        {
          "indexed": false,
          "internalType": "address",
          "name": "oldTimelock",
          "type": "address"
        },
        {
          "indexed": false,
          "internalType": "address",
          "name": "newTimelock",
          "type": "address"
        }
      ],
      "name": "TimelockChange",
      "type": "event"
    },
    {
      "anonymous": false,
      "inputs": [
        {
          "indexed": true,
          "internalType": "address",
          "name": "voter",
          "type": "address"
        },
        {
          "indexed": false,
          "internalType": "uint256",
          "name": "proposalId",
          "type": "uint256"
        },
        {
          "indexed": false,
          "internalType": "uint8",
          "name": "support",
          "type": "uint8"
        },
        {
          "indexed": false,
          "internalType": "uint256",
          "name": "weight",
          "type": "uint256"
        },
        {
          "indexed": false,
          "internalType": "string",
          "name": "reason",
          "type": "string"
        }
      ],
      "name": "VoteCast",
      "type": "event"
    },
    {
      "inputs": [],
      "name": "BALLOT_TYPEHASH",
      "outputs": [
        {
          "internalType": "bytes32",
          "name": "",
          "type": "bytes32"
        }
      ],
      "stateMutability": "view",
      "type": "function"
    },
    {
      "inputs": [],
      "name": "COUNTING_MODE",
      "outputs": [
        {
          "internalType": "string",
          "name": "",
          "type": "string"
        }
      ],
      "stateMutability": "pure",
      "type": "function"
    },
    {
      "inputs": [
        {
          "internalType": "uint256",
          "name": "proposalId",
          "type": "uint256"
        },
        {
          "internalType": "uint8",
          "name": "support",
          "type": "uint8"
        }
      ],
      "name": "castVote",
      "outputs": [
        {
          "internalType": "uint256",
          "name": "",
          "type": "uint256"
        }
      ],
      "stateMutability": "nonpayable",
      "type": "function"
    },
    {
      "inputs": [
        {
          "internalType": "uint256",
          "name": "proposalId",
          "type": "uint256"
        },
        {
          "internalType": "uint8",
          "name": "support",
          "type": "uint8"
        },
        {
          "internalType": "uint8",
          "name": "v",
          "type": "uint8"
        },
        {
          "internalType": "bytes32",
          "name": "r",
          "type": "bytes32"
        },
        {
          "internalType": "bytes32",
          "name": "s",
          "type": "bytes32"
        }
      ],
      "name": "castVoteBySig",
      "outputs": [
        {
          "internalType": "uint256",
          "name": "",
          "type": "uint256"
        }
      ],
      "stateMutability": "nonpayable",
      "type": "function"
    },
    {
      "inputs": [
        {
          "internalType": "uint256",
          "name": "proposalId",
          "type": "uint256"
        },
        {
          "internalType": "uint8",
          "name": "support",
          "type": "uint8"
        },
        {
          "internalType": "string",
          "name": "reason",
          "type": "string"
        }
      ],
      "name": "castVoteWithReason",
      "outputs": [
        {
          "internalType": "uint256",
          "name": "",
          "type": "uint256"
        }
      ],
      "stateMutability": "nonpayable",
      "type": "function"
    },
    {
      "inputs": [
        {
          "internalType": "address[]",
          "name": "targets",
          "type": "address[]"
        },
        {
          "internalType": "uint256[]",
          "name": "values",
          "type": "uint256[]"
        },
        {
          "internalType": "bytes[]",
          "name": "calldatas",
          "type": "bytes[]"
        },
        {
          "internalType": "bytes32",
          "name": "descriptionHash",
          "type": "bytes32"
        }
      ],
      "name": "execute",
      "outputs": [
        {
          "internalType": "uint256",
          "name": "",
          "type": "uint256"
        }
      ],
      "stateMutability": "payable",
      "type": "function"
    },
    {
      "inputs": [],
      "name": "fToken",
      "outputs": [
        {
          "internalType": "contract FollowNFT",
          "name": "",
          "type": "address"
        }
      ],
      "stateMutability": "view",
      "type": "function"
    },
    {
      "inputs": [
        {
          "internalType": "address",
          "name": "account",
          "type": "address"
        },
        {
          "internalType": "uint256",
          "name": "blockNumber",
          "type": "uint256"
        }
      ],
      "name": "getVotes",
      "outputs": [
        {
          "internalType": "uint256",
          "name": "",
          "type": "uint256"
        }
      ],
      "stateMutability": "view",
      "type": "function"
    },
    {
      "inputs": [
        {
          "internalType": "uint256",
          "name": "proposalId",
          "type": "uint256"
        },
        {
          "internalType": "address",
          "name": "account",
          "type": "address"
        }
      ],
      "name": "hasVoted",
      "outputs": [
        {
          "internalType": "bool",
          "name": "",
          "type": "bool"
        }
      ],
      "stateMutability": "view",
      "type": "function"
    },
    {
      "inputs": [
        {
          "internalType": "address[]",
          "name": "targets",
          "type": "address[]"
        },
        {
          "internalType": "uint256[]",
          "name": "values",
          "type": "uint256[]"
        },
        {
          "internalType": "bytes[]",
          "name": "calldatas",
          "type": "bytes[]"
        },
        {
          "internalType": "bytes32",
          "name": "descriptionHash",
          "type": "bytes32"
        }
      ],
      "name": "hashProposal",
      "outputs": [
        {
          "internalType": "uint256",
          "name": "",
          "type": "uint256"
        }
      ],
      "stateMutability": "pure",
      "type": "function"
    },
    {
      "inputs": [],
      "name": "name",
      "outputs": [
        {
          "internalType": "string",
          "name": "",
          "type": "string"
        }
      ],
      "stateMutability": "view",
      "type": "function"
    },
    {
      "inputs": [
        {
          "internalType": "uint256",
          "name": "proposalId",
          "type": "uint256"
        }
      ],
      "name": "proposalDeadline",
      "outputs": [
        {
          "internalType": "uint256",
          "name": "",
          "type": "uint256"
        }
      ],
      "stateMutability": "view",
      "type": "function"
    },
    {
      "inputs": [
        {
          "internalType": "uint256",
          "name": "proposalId",
          "type": "uint256"
        }
      ],
      "name": "proposalEta",
      "outputs": [
        {
          "internalType": "uint256",
          "name": "",
          "type": "uint256"
        }
      ],
      "stateMutability": "view",
      "type": "function"
    },
    {
      "inputs": [
        {
          "internalType": "uint256",
          "name": "proposalId",
          "type": "uint256"
        }
      ],
      "name": "proposalSnapshot",
      "outputs": [
        {
          "internalType": "uint256",
          "name": "",
          "type": "uint256"
        }
      ],
      "stateMutability": "view",
      "type": "function"
    },
    {
      "inputs": [],
      "name": "proposalThreshold",
      "outputs": [
        {
          "internalType": "uint256",
          "name": "",
          "type": "uint256"
        }
      ],
      "stateMutability": "view",
      "type": "function"
    },
    {
      "inputs": [
        {
          "internalType": "uint256",
          "name": "proposalId",
          "type": "uint256"
        }
      ],
      "name": "proposalVotes",
      "outputs": [
        {
          "internalType": "uint256",
          "name": "againstVotes",
          "type": "uint256"
        },
        {
          "internalType": "uint256",
          "name": "forVotes",
          "type": "uint256"
        },
        {
          "internalType": "uint256",
          "name": "abstainVotes",
          "type": "uint256"
        }
      ],
      "stateMutability": "view",
      "type": "function"
    },
    {
      "inputs": [
        {
          "internalType": "address[]",
          "name": "targets",
          "type": "address[]"
        },
        {
          "internalType": "uint256[]",
          "name": "values",
          "type": "uint256[]"
        },
        {
          "internalType": "bytes[]",
          "name": "calldatas",
          "type": "bytes[]"
        },
        {
          "internalType": "string",
          "name": "description",
          "type": "string"
        }
      ],
      "name": "propose",
      "outputs": [
        {
          "internalType": "uint256",
          "name": "",
          "type": "uint256"
        }
      ],
      "stateMutability": "nonpayable",
      "type": "function"
    },
    {
      "inputs": [
        {
          "internalType": "address[]",
          "name": "targets",
          "type": "address[]"
        },
        {
          "internalType": "uint256[]",
          "name": "values",
          "type": "uint256[]"
        },
        {
          "internalType": "bytes[]",
          "name": "calldatas",
          "type": "bytes[]"
        },
        {
          "internalType": "bytes32",
          "name": "descriptionHash",
          "type": "bytes32"
        }
      ],
      "name": "queue",
      "outputs": [
        {
          "internalType": "uint256",
          "name": "",
          "type": "uint256"
        }
      ],
      "stateMutability": "nonpayable",
      "type": "function"
    },
    {
      "inputs": [
        {
          "internalType": "uint256",
          "name": "blockNumber",
          "type": "uint256"
        }
      ],
      "name": "quorum",
      "outputs": [
        {
          "internalType": "uint256",
          "name": "",
          "type": "uint256"
        }
      ],
      "stateMutability": "view",
      "type": "function"
    },
    {
      "inputs": [],
      "name": "quorumDenominator",
      "outputs": [
        {
          "internalType": "uint256",
          "name": "",
          "type": "uint256"
        }
      ],
      "stateMutability": "view",
      "type": "function"
    },
    {
      "inputs": [],
      "name": "quorumNumerator",
      "outputs": [
        {
          "internalType": "uint256",
          "name": "",
          "type": "uint256"
        }
      ],
      "stateMutability": "view",
      "type": "function"
    },
    {
      "inputs": [
        {
          "internalType": "address",
          "name": "target",
          "type": "address"
        },
        {
          "internalType": "uint256",
          "name": "value",
          "type": "uint256"
        },
        {
          "internalType": "bytes",
          "name": "data",
          "type": "bytes"
        }
      ],
      "name": "relay",
      "outputs": [],
      "stateMutability": "nonpayable",
      "type": "function"
    },
    {
      "inputs": [],
      "name": "s_votingDelay",
      "outputs": [
        {
          "internalType": "uint256",
          "name": "",
          "type": "uint256"
        }
      ],
      "stateMutability": "view",
      "type": "function"
    },
    {
      "inputs": [],
      "name": "s_votingPeriod",
      "outputs": [
        {
          "internalType": "uint256",
          "name": "",
          "type": "uint256"
        }
      ],
      "stateMutability": "view",
      "type": "function"
    },
    {
      "inputs": [
        {
          "internalType": "uint256",
          "name": "proposalId",
          "type": "uint256"
        }
      ],
      "name": "state",
      "outputs": [
        {
          "internalType": "enum IGovernor.ProposalState",
          "name": "",
          "type": "uint8"
        }
      ],
      "stateMutability": "view",
      "type": "function"
    },
    {
      "inputs": [
        {
          "internalType": "bytes4",
          "name": "interfaceId",
          "type": "bytes4"
        }
      ],
      "name": "supportsInterface",
      "outputs": [
        {
          "internalType": "bool",
          "name": "",
          "type": "bool"
        }
      ],
      "stateMutability": "view",
      "type": "function"
    },
    {
      "inputs": [],
      "name": "timelock",
      "outputs": [
        {
          "internalType": "address",
          "name": "",
          "type": "address"
        }
      ],
      "stateMutability": "view",
      "type": "function"
    },
    {
      "inputs": [
        {
          "internalType": "uint256",
          "name": "newQuorumNumerator",
          "type": "uint256"
        }
      ],
      "name": "updateQuorumNumerator",
      "outputs": [],
      "stateMutability": "nonpayable",
      "type": "function"
    },
    {
      "inputs": [
        {
          "internalType": "contract TimelockController",
          "name": "newTimelock",
          "type": "address"
        }
      ],
      "name": "updateTimelock",
      "outputs": [],
      "stateMutability": "nonpayable",
      "type": "function"
    },
    {
      "inputs": [],
      "name": "version",
      "outputs": [
        {
          "internalType": "string",
          "name": "",
          "type": "string"
        }
      ],
      "stateMutability": "view",
      "type": "function"
    },
    {
      "inputs": [],
      "name": "votingDelay",
      "outputs": [
        {
          "internalType": "uint256",
          "name": "",
          "type": "uint256"
        }
      ],
      "stateMutability": "view",
      "type": "function"
    },
    {
      "inputs": [],
      "name": "votingPeriod",
      "outputs": [
        {
          "internalType": "uint256",
          "name": "",
          "type": "uint256"
        }
      ],
      "stateMutability": "view",
      "type": "function"
    },
    {
      "stateMutability": "payable",
      "type": "receive"
    }
  ],
  "bytecode": "0x6101606040523480156200001257600080fd5b5060405162002f2238038062002f2283398101604081905262000035916200035f565b8383866040518060400160405280601081526020016f11dbdd995c9b9bdc90dbdb9d1c9858dd60821b81525080620000726200014f60201b60201c565b815160208084019190912082518383012060e08290526101008190524660a0818152604080517f8b73c3c69bb8fe3d512ecc4cf759cc79239f7b179b0ffacaa9a75d522b39400f81880181905281830187905260608201869052608082019490945230818401528151808203909301835260c00190528051940193909320919290916080523060c0526101205250508251620001189250600091506020840190620002a0565b50506001600160a01b03166101405262000132816200016a565b506200013e8162000237565b5060065560075550620003f4915050565b6040805180820190915260018152603160f81b602082015290565b6064811115620001f25760405162461bcd60e51b815260206004820152604360248201527f476f7665726e6f72566f74657351756f72756d4672616374696f6e3a2071756f60448201527f72756d4e756d657261746f72206f7665722071756f72756d44656e6f6d696e616064820152623a37b960e91b608482015260a40160405180910390fd5b600380549082905560408051828152602081018490527f0553476bf02ef2726e8ce5ced78d63e26e602e4a2257b1f559418e24b4633997910160405180910390a15050565b600454604080516001600160a01b03928316815291831660208301527f08f74ea46ef7894f65eabfb5e6e695de773a000b47c529ab559178069b226401910160405180910390a1600480546001600160a01b0319166001600160a01b0392909216919091179055565b828054620002ae90620003b7565b90600052602060002090601f016020900481019282620002d257600085556200031d565b82601f10620002ed57805160ff19168380011785556200031d565b828001600101855582156200031d579182015b828111156200031d57825182559160200191906001019062000300565b506200032b9291506200032f565b5090565b5b808211156200032b576000815560010162000330565b6001600160a01b03811681146200035c57600080fd5b50565b600080600080600060a086880312156200037857600080fd5b8551620003858162000346565b6020870151909550620003988162000346565b6040870151606088015160809098015196999198509695945092505050565b600181811c90821680620003cc57607f821691505b60208210811415620003ee57634e487b7160e01b600052602260045260246000fd5b50919050565b60805160a05160c05160e051610100516101205161014051612ac56200045d600039600081816104ef0152818161152101526115a901526000611762015260006117b10152600061178c015260006116e50152600061170f015260006117390152612ac56000f3fe6080604052600436106101e75760003560e01c80637b3c71d311610102578063c01f9e3711610095578063dd4e2ba511610064578063dd4e2ba5146105fb578063deaaa7cc14610641578063eb9019d414610675578063f8ce560a1461069557600080fd5b8063c01f9e371461057d578063c28bc2fa1461059d578063c59057e4146105bd578063d33219b4146105dd57600080fd5b8063a8694e57116100d1578063a8694e57146104dd578063a890c91014610529578063ab58fb8e14610549578063b58131b01461056957600080fd5b80637b3c71d3146104745780637d5e81e21461049457806397c3d334146104b4578063a7713a70146104c857600080fd5b80633932abb11161017a578063544ffc9c11610149578063544ffc9c146103ba57806354fd4d5014610414578063567813881461043e578063725ae3dc1461045e57600080fd5b80633932abb11461030e5780633bccf4fd146103235780633e4f49e614610343578063438596321461037057600080fd5b8063102d7f2c116101b6578063102d7f2c146102a5578063160cbed7146102bb5780632656227d146102db5780632d63f693146102ee57600080fd5b806301ffc9a71461020f57806302a251a31461024457806306f3f9e61461026357806306fdde031461028357600080fd5b3661020a57306101f56106b5565b6001600160a01b03161461020857600080fd5b005b600080fd5b34801561021b57600080fd5b5061022f61022a366004611f35565b6106ce565b60405190151581526020015b60405180910390f35b34801561025057600080fd5b506007545b60405190815260200161023b565b34801561026f57600080fd5b5061020861027e366004611f5f565b6106df565b34801561028f57600080fd5b5061029861072c565b60405161023b9190611fd4565b3480156102b157600080fd5b5061025560065481565b3480156102c757600080fd5b506102556102d636600461221f565b6107be565b6102556102e936600461221f565b6109c8565b3480156102fa57600080fd5b50610255610309366004611f5f565b610a9b565b34801561031a57600080fd5b50600654610255565b34801561032f57600080fd5b5061025561033e3660046122c4565b610ad2565b34801561034f57600080fd5b5061036361035e366004611f5f565b610b66565b60405161023b9190612328565b34801561037c57600080fd5b5061022f61038b366004612350565b60008281526002602090815260408083206001600160a01b038516845260030190915290205460ff1692915050565b3480156103c657600080fd5b506103f96103d5366004611f5f565b60008181526002602081905260409091208054600182015491909201549193909250565b6040805193845260208401929092529082015260600161023b565b34801561042057600080fd5b506040805180820190915260018152603160f81b6020820152610298565b34801561044a57600080fd5b50610255610459366004612380565b610b71565b34801561046a57600080fd5b5061025560075481565b34801561048057600080fd5b5061025561048f3660046123f4565b610b9a565b3480156104a057600080fd5b506102556104af36600461244d565b610bec565b3480156104c057600080fd5b506064610255565b3480156104d457600080fd5b50600354610255565b3480156104e957600080fd5b506105117f000000000000000000000000000000000000000000000000000000000000000081565b6040516001600160a01b03909116815260200161023b565b34801561053557600080fd5b5061020861054436600461250d565b610c03565b34801561055557600080fd5b50610255610564366004611f5f565b610c44565b34801561057557600080fd5b506000610255565b34801561058957600080fd5b50610255610598366004611f5f565b610cd9565b3480156105a957600080fd5b506102086105b836600461252a565b610d08565b3480156105c957600080fd5b506102556105d836600461221f565b610d89565b3480156105e957600080fd5b506004546001600160a01b0316610511565b34801561060757600080fd5b506040805180820190915260208082527f737570706f72743d627261766f2671756f72756d3d666f722c6162737461696e90820152610298565b34801561064d57600080fd5b506102557f150214d74d59b7d1e90c73fc22ef3d991dd0a76b046543d4d80ab92d2a50328f81565b34801561068157600080fd5b5061025561069036600461256d565b610dc3565b3480156106a157600080fd5b506102556106b0366004611f5f565b610dcf565b60006106c96004546001600160a01b031690565b905090565b60006106d982610dda565b92915050565b6106e76106b5565b6001600160a01b0316336001600160a01b0316146107205760405162461bcd60e51b815260040161071790612599565b60405180910390fd5b61072981610dff565b50565b60606000805461073b906125d0565b80601f0160208091040260200160405190810160405280929190818152602001828054610767906125d0565b80156107b45780601f10610789576101008083540402835291602001916107b4565b820191906000526020600020905b81548152906001019060200180831161079757829003601f168201915b5050505050905090565b6000806107cd86868686610d89565b905060046107da82610b66565b60078111156107eb576107eb612312565b146108085760405162461bcd60e51b81526004016107179061260b565b6000600460009054906101000a90046001600160a01b03166001600160a01b031663f27a0c926040518163ffffffff1660e01b8152600401602060405180830381865afa15801561085d573d6000803e3d6000fd5b505050506040513d601f19601f82011682018060405250810190610881919061264c565b6004805460405163b1c5f42760e01b81529293506001600160a01b03169163b1c5f427916108ba918b918b918b916000918c910161272e565b602060405180830381865afa1580156108d7573d6000803e3d6000fd5b505050506040513d601f19601f820116820180604052508101906108fb919061264c565b600083815260056020526040808220929092556004805492516308f2a0bb60e41b81526001600160a01b0390931692638f2a0bb092610946928c928c928c9290918c918a910161277c565b600060405180830381600087803b15801561096057600080fd5b505af1158015610974573d6000803e3d6000fd5b505050507f9a2e42fd6722813d69113e7d0079d3d940171428df7373df9c7f7617cfda28928282426109a691906127ea565b6040805192835260208301919091520160405180910390a15095945050505050565b6000806109d786868686610d89565b905060006109e482610b66565b905060048160078111156109fa576109fa612312565b1480610a1757506005816007811115610a1557610a15612312565b145b610a335760405162461bcd60e51b81526004016107179061260b565b600082815260016020818152604092839020600201805460ff191690921790915590518381527f712ae1383f79ac853f8d882153778e0260ef8f03b504e2866e0593e04d2b291f910160405180910390a1610a918288888888610ec7565b5095945050505050565b60008181526001602090815260408083208151928301909152546001600160401b0316908190525b6001600160401b031692915050565b604080517f150214d74d59b7d1e90c73fc22ef3d991dd0a76b046543d4d80ab92d2a50328f602082015290810186905260ff851660608201526000908190610b3e90610b369060800160405160208183030381529060405280519060200120610ed4565b868686610f22565b9050610b5b87828860405180602001604052806000815250610f40565b979650505050505050565b60006106d98261104b565b600080339050610b9284828560405180602001604052806000815250610f40565b949350505050565b600080339050610be286828787878080601f016020809104026020016040519081016040528093929190818152602001838380828437600092019190915250610f4092505050565b9695505050505050565b6000610bfa85858585611191565b95945050505050565b610c0b6106b5565b6001600160a01b0316336001600160a01b031614610c3b5760405162461bcd60e51b815260040161071790612599565b61072981611467565b6004805460008381526005602052604080822054905163d45c443560e01b8152938401529182916001600160a01b03169063d45c443590602401602060405180830381865afa158015610c9b573d6000803e3d6000fd5b505050506040513d601f19601f82011682018060405250810190610cbf919061264c565b905080600114610ccf5780610cd2565b60005b9392505050565b60008181526001602081815260408084208151928301909152909101546001600160401b031690819052610ac3565b610d106106b5565b6001600160a01b0316336001600160a01b031614610d405760405162461bcd60e51b815260040161071790612599565b610d828483838080601f0160208091040260200160405190810160405280939291908181526020018383808284376000920191909152508892506114d0915050565b5050505050565b600084848484604051602001610da29493929190612802565b60408051601f19818403018152919052805160209091012095945050505050565b6000610cd283836114f6565b60006106d98261158c565b60006001600160e01b03198216636e665ced60e01b14806106d957506106d982611630565b6064811115610e825760405162461bcd60e51b815260206004820152604360248201527f476f7665726e6f72566f74657351756f72756d4672616374696f6e3a2071756f60448201527f72756d4e756d657261746f72206f7665722071756f72756d44656e6f6d696e616064820152623a37b960e91b608482015260a401610717565b600380549082905560408051828152602081018490527f0553476bf02ef2726e8ce5ced78d63e26e602e4a2257b1f559418e24b4633997910160405180910390a15050565b610d828585858585611665565b60006106d9610ee16116d8565b8360405161190160f01b6020820152602281018390526042810182905260009060620160405160208183030381529060405280519060200120905092915050565b6000806000610f33878787876117ff565b91509150610a91816118ec565b6000848152600160208190526040822090610f5a87610b66565b6007811115610f6b57610f6b612312565b14610fc45760405162461bcd60e51b815260206004820152602360248201527f476f7665726e6f723a20766f7465206e6f742063757272656e746c792061637460448201526269766560e81b6064820152608401610717565b604080516020810190915281546001600160401b031690819052600090610fec908790610dc3565b9050610ffa87878784611aa7565b856001600160a01b03167fb8e138887d0aa13bab447e82de9d5c1777041ecd21ca36ba824ff1e6c07ddda488878488604051611039949392919061284d565b60405180910390a29695505050505050565b60008061105783611c26565b9050600481600781111561106d5761106d612312565b146110785792915050565b60008381526005602052604090205480611093575092915050565b60048054604051632ab0f52960e01b81529182018390526001600160a01b031690632ab0f52990602401602060405180830381865afa1580156110da573d6000803e3d6000fd5b505050506040513d601f19601f820116820180604052508101906110fe9190612875565b1561110d575060079392505050565b60048054604051632c258a9f60e11b81529182018390526001600160a01b03169063584b153e90602401602060405180830381865afa158015611154573d6000803e3d6000fd5b505050506040513d601f19601f820116820180604052508101906111789190612875565b15611187575060059392505050565b5060029392505050565b6000806111a333610690600143612897565b10156112235760405162461bcd60e51b815260206004820152604360248201527f476f7665726e6f72436f6d7061746962696c697479427261766f3a2070726f7060448201527f6f73657220766f7465732062656c6f772070726f706f73616c207468726573686064820152621bdb1960ea1b608482015260a401610717565b60006112388686868680519060200120610d89565b9050845186511461125b5760405162461bcd60e51b8152600401610717906128ae565b835186511461127c5760405162461bcd60e51b8152600401610717906128ae565b60008651116112cd5760405162461bcd60e51b815260206004820152601860248201527f476f7665726e6f723a20656d7074792070726f706f73616c00000000000000006044820152606401610717565b600081815260016020908152604091829020825191820190925281546001600160401b0316908190521561134d5760405162461bcd60e51b815260206004820152602160248201527f476f7665726e6f723a2070726f706f73616c20616c72656164792065786973746044820152607360f81b6064820152608401610717565b600061136061135b60065490565b611d32565b61136943611d32565b61137391906128ef565b9050600061138361135b60075490565b61138d90836128ef565b835467ffffffffffffffff19166001600160401b038416178455905060018301805467ffffffffffffffff19166001600160401b0383161790557f7d84a6263ae0d98d3329bd7b46bb4e8d6f98cd35a7adb45c274c8b7fd5ebd5e084338b8b8d516001600160401b0381111561140557611405611fe7565b60405190808252806020026020018201604052801561143857816020015b60608152602001906001900390816114235790505b508c88888e6040516114529998979695949392919061291a565b60405180910390a15091979650505050505050565b600454604080516001600160a01b03928316815291831660208301527f08f74ea46ef7894f65eabfb5e6e695de773a000b47c529ab559178069b226401910160405180910390a1600480546001600160a01b0319166001600160a01b0392909216919091179055565b6060610b92848484604051806060016040528060298152602001612a6760299139611d9e565b60405163059329b960e31b81526001600160a01b0383811660048301526024820183905260009182917f00000000000000000000000000000000000000000000000000000000000000001690632c994dc890604401602060405180830381865afa158015611568573d6000803e3d6000fd5b505050506040513d601f19601f82011682018060405250810190610b92919061264c565b60006064600354604051638fca0d4160e01b8152600481018590527f00000000000000000000000000000000000000000000000000000000000000006001600160a01b031690638fca0d4190602401602060405180830381865afa1580156115f8573d6000803e3d6000fd5b505050506040513d601f19601f8201168201806040525081019061161c919061264c565b6116269190612a09565b6106d99190612a28565b60006001600160e01b0319821663bf26d89760e01b14806106d957506301ffc9a760e01b6001600160e01b03198316146106d9565b6004805460405163e38335e560e01b81526001600160a01b039091169163e38335e591349161169f918991899189916000918a910161272e565b6000604051808303818588803b1580156116b857600080fd5b505af11580156116cc573d6000803e3d6000fd5b50505050505050505050565b6000306001600160a01b037f00000000000000000000000000000000000000000000000000000000000000001614801561173157507f000000000000000000000000000000000000000000000000000000000000000046145b1561175b57507f000000000000000000000000000000000000000000000000000000000000000090565b50604080517f00000000000000000000000000000000000000000000000000000000000000006020808301919091527f0000000000000000000000000000000000000000000000000000000000000000828401527f000000000000000000000000000000000000000000000000000000000000000060608301524660808301523060a0808401919091528351808403909101815260c0909201909252805191012090565b6000807f7fffffffffffffffffffffffffffffff5d576e7357a4501ddfe92f46681b20a083111561183657506000905060036118e3565b8460ff16601b1415801561184e57508460ff16601c14155b1561185f57506000905060046118e3565b6040805160008082526020820180845289905260ff881692820192909252606081018690526080810185905260019060a0016020604051602081039080840390855afa1580156118b3573d6000803e3d6000fd5b5050604051601f1901519150506001600160a01b0381166118dc576000600192509250506118e3565b9150600090505b94509492505050565b600081600481111561190057611900612312565b14156119095750565b600181600481111561191d5761191d612312565b141561196b5760405162461bcd60e51b815260206004820152601860248201527f45434453413a20696e76616c6964207369676e617475726500000000000000006044820152606401610717565b600281600481111561197f5761197f612312565b14156119cd5760405162461bcd60e51b815260206004820152601f60248201527f45434453413a20696e76616c6964207369676e6174757265206c656e677468006044820152606401610717565b60038160048111156119e1576119e1612312565b1415611a3a5760405162461bcd60e51b815260206004820152602260248201527f45434453413a20696e76616c6964207369676e6174757265202773272076616c604482015261756560f01b6064820152608401610717565b6004816004811115611a4e57611a4e612312565b14156107295760405162461bcd60e51b815260206004820152602260248201527f45434453413a20696e76616c6964207369676e6174757265202776272076616c604482015261756560f01b6064820152608401610717565b60008481526002602090815260408083206001600160a01b0387168452600381019092529091205460ff1615611b2f5760405162461bcd60e51b815260206004820152602760248201527f476f7665726e6f72566f74696e6753696d706c653a20766f746520616c726561604482015266191e4818d85cdd60ca1b6064820152608401610717565b6001600160a01b03841660009081526003820160205260408120805460ff1916600117905560ff168360ff161415611b805781816000016000828254611b7591906127ea565b90915550610d829050565b60ff831660011415611ba05781816001016000828254611b7591906127ea565b60ff831660021415611bc05781816002016000828254611b7591906127ea565b60405162461bcd60e51b815260206004820152603560248201527f476f7665726e6f72566f74696e6753696d706c653a20696e76616c69642076616044820152746c756520666f7220656e756d20566f74655479706560581b6064820152608401610717565b6000818152600160205260408120600281015460ff1615611c4a5750600792915050565b6002810154610100900460ff1615611c655750600292915050565b6000611c7084610a9b565b905080611cbf5760405162461bcd60e51b815260206004820152601d60248201527f476f7665726e6f723a20756e6b6e6f776e2070726f706f73616c2069640000006044820152606401610717565b438110611cd0575060009392505050565b6000611cdb85610cd9565b9050438110611cef57506001949350505050565b611cf885611ec4565b8015611d17575060008581526002602052604090208054600190910154115b15611d2757506004949350505050565b506003949350505050565b60006001600160401b03821115611d9a5760405162461bcd60e51b815260206004820152602660248201527f53616665436173743a2076616c756520646f65736e27742066697420696e203660448201526534206269747360d01b6064820152608401610717565b5090565b606082471015611dff5760405162461bcd60e51b815260206004820152602660248201527f416464726573733a20696e73756666696369656e742062616c616e636520666f6044820152651c8818d85b1b60d21b6064820152608401610717565b6001600160a01b0385163b611e565760405162461bcd60e51b815260206004820152601d60248201527f416464726573733a2063616c6c20746f206e6f6e2d636f6e74726163740000006044820152606401610717565b600080866001600160a01b03168587604051611e729190612a4a565b60006040518083038185875af1925050503d8060008114611eaf576040519150601f19603f3d011682016040523d82523d6000602084013e611eb4565b606091505b5091509150610b5b828286611efc565b60008181526002602081905260408220908101546001820154611ee791906127ea565b611ef36106b085610a9b565b11159392505050565b60608315611f0b575081610cd2565b825115611f1b5782518084602001fd5b8160405162461bcd60e51b81526004016107179190611fd4565b600060208284031215611f4757600080fd5b81356001600160e01b031981168114610cd257600080fd5b600060208284031215611f7157600080fd5b5035919050565b60005b83811015611f93578181015183820152602001611f7b565b83811115611fa2576000848401525b50505050565b60008151808452611fc0816020860160208601611f78565b601f01601f19169290920160200192915050565b602081526000610cd26020830184611fa8565b634e487b7160e01b600052604160045260246000fd5b604051601f8201601f191681016001600160401b038111828210171561202557612025611fe7565b604052919050565b60006001600160401b0382111561204657612046611fe7565b5060051b60200190565b6001600160a01b038116811461072957600080fd5b600082601f83011261207657600080fd5b8135602061208b6120868361202d565b611ffd565b82815260059290921b840181019181810190868411156120aa57600080fd5b8286015b848110156120ce5780356120c181612050565b83529183019183016120ae565b509695505050505050565b600082601f8301126120ea57600080fd5b813560206120fa6120868361202d565b82815260059290921b8401810191818101908684111561211957600080fd5b8286015b848110156120ce578035835291830191830161211d565b60006001600160401b0383111561214d5761214d611fe7565b612160601f8401601f1916602001611ffd565b905082815283838301111561217457600080fd5b828260208301376000602084830101529392505050565b600082601f83011261219c57600080fd5b813560206121ac6120868361202d565b82815260059290921b840181019181810190868411156121cb57600080fd5b8286015b848110156120ce5780356001600160401b038111156121ee5760008081fd5b8701603f810189136122005760008081fd5b612211898683013560408401612134565b8452509183019183016121cf565b6000806000806080858703121561223557600080fd5b84356001600160401b038082111561224c57600080fd5b61225888838901612065565b9550602087013591508082111561226e57600080fd5b61227a888389016120d9565b9450604087013591508082111561229057600080fd5b5061229d8782880161218b565b949793965093946060013593505050565b803560ff811681146122bf57600080fd5b919050565b600080600080600060a086880312156122dc57600080fd5b853594506122ec602087016122ae565b93506122fa604087016122ae565b94979396509394606081013594506080013592915050565b634e487b7160e01b600052602160045260246000fd5b602081016008831061234a57634e487b7160e01b600052602160045260246000fd5b91905290565b6000806040838503121561236357600080fd5b82359150602083013561237581612050565b809150509250929050565b6000806040838503121561239357600080fd5b823591506123a3602084016122ae565b90509250929050565b60008083601f8401126123be57600080fd5b5081356001600160401b038111156123d557600080fd5b6020830191508360208285010111156123ed57600080fd5b9250929050565b6000806000806060858703121561240a57600080fd5b8435935061241a602086016122ae565b925060408501356001600160401b0381111561243557600080fd5b612441878288016123ac565b95989497509550505050565b6000806000806080858703121561246357600080fd5b84356001600160401b038082111561247a57600080fd5b61248688838901612065565b9550602087013591508082111561249c57600080fd5b6124a8888389016120d9565b945060408701359150808211156124be57600080fd5b6124ca8883890161218b565b935060608701359150808211156124e057600080fd5b508501601f810187136124f257600080fd5b61250187823560208401612134565b91505092959194509250565b60006020828403121561251f57600080fd5b8135610cd281612050565b6000806000806060858703121561254057600080fd5b843561254b81612050565b93506020850135925060408501356001600160401b0381111561243557600080fd5b6000806040838503121561258057600080fd5b823561258b81612050565b946020939093013593505050565b60208082526018908201527f476f7665726e6f723a206f6e6c79476f7665726e616e63650000000000000000604082015260600190565b600181811c908216806125e457607f821691505b6020821081141561260557634e487b7160e01b600052602260045260246000fd5b50919050565b60208082526021908201527f476f7665726e6f723a2070726f706f73616c206e6f74207375636365737366756040820152601b60fa1b606082015260800190565b60006020828403121561265e57600080fd5b5051919050565b600081518084526020808501945080840160005b8381101561269e5781516001600160a01b031687529582019590820190600101612679565b509495945050505050565b600081518084526020808501945080840160005b8381101561269e578151875295820195908201906001016126bd565b600081518084526020808501808196508360051b8101915082860160005b8581101561272157828403895261270f848351611fa8565b988501989350908401906001016126f7565b5091979650505050505050565b60a08152600061274160a0830188612665565b828103602084015261275381886126a9565b9050828103604084015261276781876126d9565b60608401959095525050608001529392505050565b60c08152600061278f60c0830189612665565b82810360208401526127a181896126a9565b905082810360408401526127b581886126d9565b60608401969096525050608081019290925260a0909101529392505050565b634e487b7160e01b600052601160045260246000fd5b600082198211156127fd576127fd6127d4565b500190565b6080815260006128156080830187612665565b828103602084015261282781876126a9565b9050828103604084015261283b81866126d9565b91505082606083015295945050505050565b84815260ff84166020820152826040820152608060608201526000610be26080830184611fa8565b60006020828403121561288757600080fd5b81518015158114610cd257600080fd5b6000828210156128a9576128a96127d4565b500390565b60208082526021908201527f476f7665726e6f723a20696e76616c69642070726f706f73616c206c656e67746040820152600d60fb1b606082015260800190565b60006001600160401b03808316818516808303821115612911576129116127d4565b01949350505050565b60006101208b8352602060018060a01b038c16818501528160408501526129438285018c612665565b91508382036060850152612957828b6126a9565b915083820360808501528189518084528284019150828160051b850101838c0160005b838110156129a857601f19878403018552612996838351611fa8565b9486019492509085019060010161297a565b505086810360a08801526129bc818c6126d9565b9450505050506129d760c08401876001600160401b03169052565b6001600160401b03851660e08401528281036101008401526129f98185611fa8565b9c9b505050505050505050505050565b6000816000190483118215151615612a2357612a236127d4565b500290565b600082612a4557634e487b7160e01b600052601260045260246000fd5b500490565b60008251612a5c818460208701611f78565b919091019291505056fe416464726573733a206c6f772d6c6576656c2063616c6c20776974682076616c7565206661696c6564a2646970667358221220fa1207fd0cbf8e0eccd83169bc87d410055e1f75e790a4a27fd969598d529e1f64736f6c634300080a0033",
  "linkReferences": {},
  "deployedLinkReferences": {}
}